:020000040800F2
:10000000B80B002035330008693200086B32000855
:100010006F320008733200087732000800000000D9
:100020000000000000000000000000007B3200081B
:100030007D320008000000007F3200088132000895
:10004000673200084F3300084F3300084F33000871
:100050004F3300084F3300084F3300084F33000878
:100060004F3300084F3300084F3300084F33000868
:100070004F3300084F3300084F3300084F33000858
:100080004F3300084F3300084F3300084F33000848
:10009000653200084F3300084F3300084F33000823
:1000A0004F3300084F3300084F3300084F33000828
:1000B0004F3300084F3300084F3300084F33000818
:1000C0004F3300084F3300084F3300084F33000808
:1000D0004F330008353200084F3300084F33000813
:1000E0004F3300084F3300084F3300084F330008E8
:1000F0004F3300084F3300084F3300084F330008D8
:100100004F3300084F3300084F3300084F330008C7
:100110004F3300084F3300084F3300084F330008B7
:100120004F3300084F3300084F3300084F330008A7
:1001300000F002F800F03AF80AA090E8000C8244BF
:100140008344AAF10107DA4501D100F02FF8AFF29C
:10015000090EBAE80F0013F0010F18BFFB1A43F0A5
:100160000103184788470000A8470000103A24BF41
:1001700078C878C1FAD8520724BF30C830C144BF0C
:1001800004680C607047000000230024002500264E
:10019000103A28BF78C1FBD8520728BF30C148BFEA
:1001A0000B6070471FB51FBD10B510BD04F05DFAA0
:1001B0001146FFF7F7FF03F039FD04F07BFA03B4B3
:1001C000FFF7F2FF03BC02F06DFF00000CB500204A
:1001D000019000906C48006840F480306A490860E3
:1001E00000BF6948006800F4003000900198401C8E
:1001F0000190009818B90198B0F5A06FF1D162484C
:10020000006800F4003010B10120009001E00020EF
:1002100000900098012843D15C48006840F010002D
:100220005A4908600846006820F003000860084644
:10023000006840F002000860534840685249486036
:100240000846406848600846406840F4806048605E
:100250000846406820F47C1048600846406840F436
:10026000E81048600846006840F08070086000BFF1
:100270004548006800F000700028F9D04248406806
:1002800020F00300404948600846406840F0020002
:10029000486000BF3C48406800F00C000828F9D1D5
:1002A0000CBD10B5FFF792FF10BD10B536480068C1
:1002B00040F001003449086008464068344908406D
:1002C0003149486008460068324908402E490860B4
:1002D0000846006820F4802008600846406820F442
:1002E000FE0048604FF41F008860FFF7DAFF4FF010
:1002F00000602949086010BD10B5002100200022CF
:10030000214B5B6803F00C0121B1042906D00829B8
:1003100028D107E0214B224C236027E01F4B204CC3
:10032000236023E0184B5B6803F47010164B5B6886
:1003300003F48032022303EB904022B9194B43436C
:10034000174C23600DE0104B5B6803F4003323B1BE
:10035000144B4343124C236003E0104B4343104CB7
:10036000236003E00D4B0E4C236000BF00BF064B23
:100370005B68C3F303130C4CE15C094B1B68CB4077
:10038000074C236010BD0000001002400020024016
:100390000000FFF8FFFFF6FE08ED00E000127A0013
:1003A0000000002000093D000400002010B50446B4
:1003B000B4F5E06F0BD0B4F5C06F08D0B4F5A06F02
:1003C00005D0B4F5806F02D0B4F5407F00D103E0D2
:1003D00063215DA002F068FE5F4820435F4908602A
:1003E00010BD2DE9F0410446002500270F26E078D6
:1003F00010B1E078012800D103E0752152A002F08D
:1004000053FE6078102800DA03E076214EA002F057
:100410004BFEA078102800DA03E077214AA002F012
:1004200043FEE07800B34D48006800F4E060C0F59A
:10043000E060050AC5F10407EE40607800FA07F5B0
:10044000A078304005432D01454822788554207816
:1004500000F01F010120884021784911890001F135
:10046000E021C1F8000109E0207800F01F0101201F
:1004700088403C492278521141F82200BDE8F081C1
:1004800070B504460D46B4F1005F02D0B4F1006FC0
:1004900000D103E09F212CA002F006FE32488542E5
:1004A00000D203E0A02128A002F0FEFD2F4905EABA
:1004B000010020432949091F086070BD70B504463A
:1004C0000D46102C03D0042C01D0022C00D103E0E7
:1004D000B2211DA002F0E8FD0DB1012D00D103E015
:1004E000B32119A002F0E0FD3DB11C48001D0068D9
:1004F00020431A49091D086006E01848001D0068DD
:10050000A0431649091D086070BD10B50446042CAF
:1005100001D0601D00B903E0CA210BA002F0C4FDA8
:10052000042C08D14FF0E020006940F004004FF0A7
:10053000E021086107E04FF0E020006920F00400AE
:100540004FF0E021086110BD656D6C69625C6D69FA
:1005500073632E63000000000000FA050CED00E05C
:1005600000E400E080E100E0FFFF0F0080FFFF1FDC
:1005700070B5044600251CB1012C01D0022C00D11D
:1005800004E040F20311F5A002F08EFDF948056881
:1005900005F038052543056070BD10B50446082CEC
:1005A00000D004B904E04FF48E71ECA002F07CFDA1
:1005B000F048006820F00800EE490860084600682E
:1005C0002043086010BD10B50446102C00D004B9BB
:1005D00004E040F22F11E1A002F066FDE54800685A
:1005E00020F01000E34908600846006820430860D6
:1005F00010BDE148DF494860E0484860DE48486493
:10060000DE4848647047DC48DA494860DB484860A7
:100610007047D948D7494864D84848647047D54896
:10062000006940F08000D34908610846006D40F041
:10063000800008657047CF48006940F08000CD49D0
:1006400008617047CB48006D40F08000C9490865DB
:1006500070470420C749C96C01F0010109B10120AC
:100660000EE0C449C96C01F0040109B1022007E0A1
:10067000C049C96C01F0100109B1032000E0042059
:10068000704700B502460423FFF7E3FF034603E08B
:10069000FFF7DFFF0346521E012B01D1002AF7D1DD
:1006A00002B90523184600BD0420B249C96801F00B
:1006B000010109B101200EE0AE49C96801F0040151
:1006C00009B1022007E0AB49C96801F0100109B186
:1006D000032000E00420704700B502460423FFF722
:1006E000E3FF034603E0FFF7DFFF0346521E012B43
:1006F00001D1002AF7D102B90523184600BD70B513
:1007000004460425B4F1006F03D39D48844200D20F
:1007100004E040F2A71191A002F0C6FC994884427F
:100720001FD24FF43020FFF7D7FF0546042D37D1F5
:100730009048006940F002008E4908610846446113
:10074000006940F0400008614FF43020FFF7C4FF1B
:1007500005468848006941F6FD71084085490861F1
:100760001EE04FF43020FFF78CFF0546042D17D113
:100770008048006D40F002007E49086508464465E7
:10078000006D40F0400008654FF43020FFF779FF1E
:1007900005467848006D41F6FD71084075490865C9
:1007A000284670BD10B504244FF43020FFF794FFA5
:1007B0000446042C16D16F48006940F004006D49CE
:1007C00008610846006940F0400008614FF430209D
:1007D000FFF782FF04466748006941F6FB71084055
:1007E00064490861042C16D16248006D40F0040091
:1007F000604908650846006D40F0400008654FF408
:100800003020FFF73EFF04465A48006D41F6FB7169
:10081000084058490865204610BD10B504244FF41F
:100820003020FFF759FF0446042C16D151480069C7
:1008300040F004004F4908610846006940F040005C
:1008400008614FF43020FFF747FF0446494800692C
:1008500041F6FB71084047490861204610BD10B5BC
:1008600004244FF43020FFF70CFF0446042C16D16B
:100870004048006D40F004003E4908650846006DA0
:1008800040F0400008654FF43020FFF7FAFE0446C0
:100890003848006D41F6FB7108403649086520462E
:1008A00010BD00B502460423FFF7FEFE034603E039
:1008B000FFF7FAFE0346521E012B01D1002AF7D1A1
:1008C00002B90523184600BD00202A49C96901F074
:1008D000020109B1012000E00020704730B5A525D4
:1008E0000424FFF7F1FF00B100254FF43020FFF79B
:1008F000D8FF0446042C52D11F481E4988601F4867
:1009000088600846006940F02000086108460069D8
:1009100040F0400008614FF43020FFF7C2FF04466A
:10092000042C33D11348006941F6DF7108401149A6
:1009300008610846006940F010000861124805800F
:10094000E002FFF7AEFF0446052C28D009480069F5
:1009500041F6EF7108400749086120E0656D6C6958
:10096000625C73746D3332663130785F666C6173CC
:10097000682E63000020024023016745AB89EFCD5C
:10098000FFFF0F08FFFF070800F8FF1F052C06D028
:10099000F748006941F6EF710840F54908612046C3
:1009A00030BDF8B504460D46042600200090B4F191
:1009B000006F03D3EF48844200D205E040F2AF213C
:1009C000AFF2680002F070FBEB4884422CD24FF487
:1009D0000050FFF781FE0646042E1CD1E448006952
:1009E00040F00100E24908612580F002FFF759FF5D
:1009F0000646042E10D1A01C0090280C00990880F7
:100A0000F002FFF74EFF0646D948006941F6FE7135
:100A10000840D74908617EE0D548006941F6FE717B
:100A20000840D349086176E0D348401C844246D14F
:100A30004FF40050FFF750FE0646042E12D1CC486A
:100A4000006940F00100CA4908612580F002FFF703
:100A500043FE0646C648006941F6FE710840C44997
:100A6000086106E0C248006941F6FE710840C049CD
:100A700008614FF40050FFF704FE0646042E16D11D
:100A8000BB48006D40F00100B9490865A01C00900A
:100A9000280C00990880F002FFF7F3FD0646B448E1
:100AA000006D41F6FE710840B149086533E0B04879
:100AB000006D41F6FE710840AD4908652BE04FF42A
:100AC0000050FFF7DEFD0646042E24D1A848006D35
:100AD00040F00100A64908652580F002FFF7D1FD2E
:100AE0000646042E10D1A01C0090280C0099088006
:100AF000F002FFF7C6FD06469D48006D41F6FE7107
:100B000008409B49086506E09948006D41F6FE7172
:100B10000840974908653046F8BD70B504460D4653
:100B20000426B4F1006F03D39248844200D205E05A
:100B300040F25E31AFF2DC1002F0B6FA4FF4005032
:100B4000FFF7AFFE06468C48801C844214D2042E68
:100B500026D18748006940F0010085490861258059
:100B6000F002FFF7B9FD06468148006941F6FE71C3
:100B700008407F49086113E0042E11D17C48006DC4
:100B800040F001007A4908652580F002FFF779FD01
:100B900006467748006D41F6FE71084074490865C5
:100BA000304670BD70B504460E4604257348844235
:100BB00002D0801C844200D105E040F2A531AFF2A2
:100BC000642002F071FA4FF40050FFF76AFE054608
:100BD000042D17D16A48664988606A4888600846CB
:100BE000006940F0100008612680E802FFF759FE16
:100BF0000546052D06D05E48006941F6EF710840B4
:100C00005B490861284670BD2DE9F04704464FF660
:100C1000FF763746B046B146042504B105E040F200
:100C2000D631AFF2C82002F03FFAE443E6B2C4F393
:100C30000727C4F307484FEA14694FF40050FFF741
:100C400030FE0546042D40D14D48494988604D4845
:100C500088600846006940F010000861FF2E06D049
:100C60004648001D0680E802FFF71BFE0546042DDE
:100C700008D1FF2F06D04148801D0780E802FFF70A
:100C800010FE0546042D0AD1B8F1FF0F07D03B48EE
:100C90000830A0F80080E802FFF703FE0546042DA7
:100CA0000AD1B9F1FF0F07D034480A30A0F80090FC
:100CB000E802FFF7F6FD0546052D06D02C48006931
:100CC00041F6EF7108402A4908612846BDE8F087DF
:100CD00070B5054604240DB1012D00D105E040F2A8
:100CE0001D41AFF2883002F0DFF94FF43020FFF7FA
:100CF000D8FD0446042C50D121481D498860214864
:100D000088600846006940F02000086108460069D4
:100D100040F0400008614FF43020FFF7C2FD044668
:100D2000042C31D11248006941F6DF7108401049A6
:100D300008610846006940F01000086125B10020F4
:100D40000E49091F088003E0A5200C49091F0880EF
:100D50004FF43020FFF7A5FD0446052C1DD00448B4
:100D6000006941F6EF7108400149086115E0000093
:100D700000200240FFFF0F08FDFF070804F8FF1FD7
:100D800023016745AB89EFCD052C06D0AA48006941
:100D900041F6DF710840A8490861204670BD2DE981
:100DA000F04104460D4616460427012C00D004B934
:100DB00005E040F26341AFF25C4002F075F9022DAC
:100DC00000D005B905E040F26441AFF2704002F096
:100DD0006BF9042E00D006B905E040F26541AFF290
:100DE000844002F061F9954893498860944888608E
:100DF0004FF40050FFF755FD0746042F18D18E48D9
:100E0000006940F010008C49086146F0F800284362
:100E100020438C490880F802FFF743FD0746052F61
:100E200006D08548006941F6EF71084082490861A3
:100E30003846BDE8F08170B5044604250CB1012C9C
:100E400000D105E040F29741AFF2F04002F02CF9FA
:100E50007A48794988607A4888604FF40050FFF7F3
:100E600020FD0546042D22D17348006940F0100092
:100E70007149086134B97348008840F0080071492D
:100E8000088006E06F4800884FF6F77108406D490A
:100E900008804FF40050FFF704FD0546052D06D0ED
:100EA0006548006941F6EF710840634908612846CA
:100EB00070BD6148C069800870475F48006A70472C
:100EC00000205D49096801F0200109B1012000E01E
:100ED0000020704770B504460D465B48204008B9B5
:100EE00004B105E040F20E51AFF2905002F0DCF890
:100EF0000DB1012D00D105E040F20F51AFF2A45029
:100F000002F0D2F804F0004080B13DB14A48006DD3
:100F100024F0004108434849086513E04648006D45
:100F200024F000418843444908650BE02DB1424854
:100F3000006920434049086104E03F480069A0433C
:100F40003D49086170BD70B504460025012C1DD0D7
:100F5000202C1BD0042C19D0102C17D0012C15D00C
:100F600014D0202C12D0042C10D0102C0ED03748C6
:100F700084420BD035481F30844207D03348C01C10
:100F8000844203D031480F30844200D105E040F262
:100F90005351AFF2386002F087F8012C08D126488F
:100FA000C06900F0010008B1012513E0002511E03F
:100FB00004F0004038B12048C06C204008B1012541
:100FC00008E0002506E01C48C068204008B1012563
:100FD00000E00025284670BD10B504461B48373890
:100FE000204008B904B105E040F2A751AFF2946087
:100FF00002F05AF804F0004010B10F48C46401E058
:101000000D48C46010BD04200B49C96801F00101FE
:1010100009B101200EE00849C96801F0040109B1D5
:10102000022007E00449C96801F0100109B103205A
:1010300000E00420704700000020024023016745C3
:10104000AB89EFCD02F8FF1FFFEBFF7F01000080AF
:1010500010B50446FC48844211D0FC4884420ED0AE
:10106000FB4884420BD0FB48844208D0FA488442B3
:1010700005D0FA48844202D0F948844200D103E006
:101080006F21F8A002F010F8EF48844208D1012146
:10109000042001F048F80021042001F044F846E063
:1010A000EA48844208D10121082001F03CF80021DF
:1010B000082001F038F83AE0E548844208D10121DF
:1010C000102001F030F80021102001F02CF82EE063
:1010D000E048844208D10121202001F024F80021B9
:1010E000202001F020F822E0DB48844208D10121D1
:1010F000402001F018F80021402001F014F816E01B
:10110000D648844208D10121802001F00CF800214A
:10111000802001F008F80AE0D148844207D101217B
:10112000801501F000F80021A01500F0FCFF10BDB3
:1011300010B50121084600F0F6FF0021012000F063
:10114000F2FF10BD2DE9F05F05460C464FF0000997
:10115000CA4600260027B046B346BB48854211D098
:10116000BA4885420ED0BA4885420BD0B94885426C
:1011700008D0B948854205D0B848854202D0B84861
:10118000854200D103E0B221B6A001F08DFFE078E6
:10119000A0B1E078042811D0E07828280ED0E078BB
:1011A00048280BD0E078142808D0E078102805D023
:1011B000E0781C2802D0E078182800D103E0B321A1
:1011C000A8A001F071FF002010B9208800B103E051
:1011D000B421A4A001F068FFE07800F00F09E078E6
:1011E00000F0100080B1A078012805D0A078022876
:1011F00002D0A078032800D103E0BB2199A001F020
:1012000053FFA07840EA0909207838B3D5F8008068
:1012100000261FE0012000FA06F7208800EA070AEE
:10122000BA4516D1B7000F2000FA07FB28EA0B08D1
:1012300009FA07F040EA0808E078282803D10120DD
:10124000B040686105E0E078482802D10120B04054
:101250002861761C082EDDD3C5F800802088FF2881
:101260002BDDD5F80480002623E006F108000121DB
:1012700001FA00F7208800EA070ABA4518D1B7003A
:101280000F2000FA07FB28EA0B0809FA07F040EAEA
:101290000808E078282803D106F108008140696138
:1012A000E078482804D106F1080001218140296135
:1012B000761C082ED9D3C5F80480BDE8F09F4FF600
:1012C000FF710180022181700421C170704770B5E7
:1012D00005460C4600265C48854211D05B48854295
:1012E0000ED05B4885420BD05A48854208D05A48F8
:1012F000854205D05948854202D05948854200D1DF
:1013000004E04FF48F7157A001F0CEFE012C25D0E0
:10131000022C23D0042C21D0082C1FD0102C1DD03F
:10132000202C1BD0402C19D0802C17D0B4F5807FF6
:1013300014D0B4F5007F11D0B4F5806F0ED0B4F5A1
:10134000006F0BD0B4F5805F08D0B4F5005F05D016
:10135000B4F5804F02D0B4F5004F00D104E040F264
:101360001F1140A001F0A0FEA868204008B101268E
:1013700000E00026304670BD10B504463248844275
:1013800011D0324884420ED0314884420BD03148CB
:10139000844208D03048844205D03048844202D08C
:1013A0002F48844200D104E04FF49A712DA001F03F
:1013B0007BFEA06880B210BD70B505460C460026C5
:1013C0002148854211D0214885420ED020488542CF
:1013D0000BD02048854208D01F48854205D01F48C1
:1013E000854202D01E48854200D104E04FF4A2712C
:1013F0001CA001F059FE012C25D0022C23D0042C76
:1014000021D0082C1FD0102C1DD0202C1BD0402CFC
:1014100019D0802C17D0B4F5807F14D0B4F5007F9C
:1014200011D0B4F5806F0ED0B4F5006F0BD0B4F5C9
:10143000805F08D0B4F5005F05D0B4F5804F02D0CE
:10144000B4F5004F1AD11FE000080140000C014024
:10145000001001400014014000180140001C014030
:1014600000200140656D6C69625C73746D33326697
:101470003130785F6770696F2E63000040F245116C
:10148000AFF2200001F010FEE868204008B101260C
:1014900000E00026304670BD10B50446FE48844288
:1014A00011D0FE4884420ED0FD4884420BD0FD4846
:1014B000844208D0FC48844205D0FC48844202D0D3
:1014C000FB48844200D105E04FF4AD71AFF26C00EF
:1014D00001F0EAFDE06880B210BD70B504460D462B
:1014E000ED48844211D0ED4884420ED0EC4884424D
:1014F0000BD0EC48844208D0EB48844205D0EB483E
:10150000844202D0EA48844200D105E040F26911E9
:10151000AFF2B00001F0C8FD002008B905B105E048
:101520004FF4B571AFF2C40001F0BEFD256170BD8E
:1015300070B504460D46D848844211D0D74884423D
:101540000ED0D74884420BD0D648844208D0D64823
:10155000844205D0D548844202D0D548844200D187
:1015600005E040F27911AFF2041001F09DFD00207A
:1015700008B905B105E04FF4BD71AFF2181001F0E4
:1015800093FD656170BD70B505460C461646C248B0
:10159000854211D0C14885420ED0C14885420BD04A
:1015A000C048854208D0C048854205D0BF48854222
:1015B00002D0BF48854200D105E040F28D11AFF264
:1015C0005C1001F071FD012C25D0022C23D0042CDD
:1015D00021D0082C1FD0102C1DD0202C1BD0402C2B
:1015E00019D0802C17D0B4F5807F14D0B4F5007FCB
:1015F00011D0B4F5806F0ED0B4F5006F0BD0B4F5F8
:10160000805F08D0B4F5005F05D0B4F5804F02D0FC
:10161000B4F5004F00D105E04FF4C771AFF2BC1034
:1016200001F042FD0EB1012E00D105E040F28F1114
:10163000AFF2D01001F038FD0EB12C6100E06C610A
:1016400070BD70B504460D469348844211D093484E
:1016500084420ED0924884420BD09248844208D0F3
:101660009148844205D09148844202D090488442F7
:1016700000D105E04FF4D271AFF2182001F014FD53
:10168000E56070BD70B504460D464FF48036824863
:10169000844211D0814884420ED0814884420BD0CC
:1016A0008048844208D08048844205D07F488442E4
:1016B00002D07F48844200D105E040F2B511AFF27C
:1016C0005C2001F0F1FC002008B905B105E04FF401
:1016D000DB71AFF2702001F0E7FC2E43A661A5613B
:1016E000A661A669A66970BD70B505460C460026C0
:1016F0003DB1012D05D0022D03D0032D01D0042DC5
:1017000000D105E04FF4E971AFF2A82001F0CCFC64
:10171000ECB1012C1BD0022C19D0032C17D0042CB7
:1017200015D0052C13D0062C11D0072C0FD0082C67
:101730000DD0092C0BD00A2C09D00B2C07D00C2C67
:1017400005D00D2C03D00E2C01D00F2C00D105E0BC
:1017500040F2D311AFF2F42001F0A6FC5548066820
:101760004FF68070064046EA05162643514806604B
:1017700070BD10B504460CB1012C00D105E04FF44A
:10178000F371AFF2203001F08FFC4B48C46110BD03
:101790002DE9F04704460E460027B8460025A94625
:1017A000012C77D0022C75D0042C73D0082C71D06A
:1017B000424884426ED04148203084426AD040483A
:1017C000844267D03E488030844263D03D488442A2
:1017D00060D03D4884425DD03C4884425AD03C4869
:1017E000844257D03B48844254D0B4F5805F51D0F6
:1017F000B4F5EA1F4ED0B4F5EB1F4BD0B4F5004F53
:1018000048D03548844245D0401C844242D0801C98
:1018100084427FD0001D84427CD02F480F30844208
:1018200078D0B4F1201F75D04FEAF030844271D0E7
:101830002A4884426ED02A4884426BD02948844288
:1018400068D02948844265D02848844262D0B4F5E3
:10185000011F5FD0264884425CD0401C844259D08E
:10186000801C844256D0001D844253D020480F3043
:1018700084424FD01E481F3084424BD01C483F301A
:10188000844247D01A487F30844243D01848FF3002
:1018900084422FE03EE0000000080140000C0140BF
:1018A000001001400014014000180140001C0140DC
:1018B0000020014000000140000020421000140000
:1018C0004000160000011800000218000003180074
:1018D00000081A00000C1A0001002000000130006E
:1018E0000002300000043000001120000020200021
:1018F000010000800ED0664884420BD065488442C7
:1019000008D06548844205D06448844202D06448C7
:10191000844200D105E040F22A21AFF2B84001F044
:10192000C3FB0EB1012E00D105E040F22B21AFF236
:10193000CC4001F0B9FB04F00040B0F1004F02D1FF
:101940005848C56901E057484568C4F30349A7B240
:1019500004F44010B0F5401F08D125F070655148DF
:10196000406820F070604F49486013E004F4801034
:10197000B0F5801F07D1032000FA09F825EA080511
:1019800045F0706506E0600D000107FA00F0854340
:1019900045F0706526B1600D010107FA01F00543BD
:1019A00004F00040B0F1004F02D13E48C56101E0B3
:1019B0003C484560BDE8F08770B505460C460026FA
:1019C0005DB1012D09D0022D07D0032D05D0042DC6
:1019D00003D0052D01D0062D00D105E040F2652190
:1019E000AFF2805001F060FBECB1012C1BD0022C57
:1019F00019D0032C17D0042C15D0052C13D0062C8D
:101A000011D0072C0FD0082C0DD0092C0BD00A2C8C
:101A100009D00B2C07D00C2C05D00D2C03D00E2C8C
:101A200001D00F2C00D105E040F26621AFF2CC507E
:101A300001F03AFBA007010F0F2000FA01F6194848
:101A40000830A11050F82100B04316490831A21007
:101A500041F822000846A11050F82100A107090F03
:101A600005FA01F108430F490831A21041F822009C
:101A700070BD10B504460CB1012C00D105E04FF447
:101A80001E71AFF2206001F00FFB0748046010BD2B
:101A90000002008000040080000800800010008028
:101AA0000020008000000140DC002042FE48006869
:101AB00040F00100FC49086008464068FB490840C6
:101AC000F949486008460068F9490840F649086045
:101AD0000846006820F4802008600846406820F42A
:101AE000FE0048604FF41F008860704710B5044640
:101AF0002CB1B4F5803F02D0B4F5802F00D104E0C2
:101B000040F21111EBA001F0CFFAE748006820F491
:101B10008030E54908600846006820F480200860AD
:101B2000B4F5803F03D0B4F5802F0ED106E0DE4837
:101B3000006840F48030DC49086007E0DA4800685B
:101B400040F4A020D849086000E000BF00BF10BDED
:101B50002DE9F0410446002500260027212C13D052
:101B6000312C11D0392C0FD0412C0DD0612C0BD041
:101B70007A2C09D07B2C07D07C2C05D07D2C03D06F
:101B80007E2C01D07F2C00D104E040F23451C9A05A
:101B900001F08AFA6511012D02D1C348066806E0FA
:101BA000022D02D1C048066A01E0BF48466A04F02F
:101BB0001F050120A840304008B1012700E00027A0
:101BC0003846BDE8F08138B500200090002400259B
:101BD00000BF3120FFF7BCFF05460098401C009075
:101BE0000098B0F5A06F01D0002DF2D03120FFF7A2
:101BF000AFFF08B1012400E00024204638BD70B5D5
:101C0000044600251F2C00DC04E04FF4A971A9A0B4
:101C100001F04AFAA448056825F0F80545EAC4052C
:101C2000056070BD10B504460CB1012C00D104E074
:101C300040F265119FA001F037FAA448046010BD7E
:101C400070B505460C4600262DB1B5F5803F02D093
:101C5000B5F5403F00D104E040F27F1195A001F0BE
:101C600023FA4CB3B4F5802F26D0B4F5002F23D03F
:101C7000B4F5402F20D0B4F5801F1DD0B4F5A01FBF
:101C80001AD0B4F5C01F17D0B4F5E01F14D0B4F5C6
:101C9000001F11D0B4F5101F0ED0B4F5201F0BD0CB
:101CA000B4F5301F08D0B4F5401F05D0B4F5501F6F
:101CB00002D0B4F5601F00D104E04FF4C0717DA0E4
:101CC00001F0F2F97848466826F47C1645EA0400EB
:101CD00006437548466070BD10B504460CB1012C32
:101CE00000D104E04FF4CA7172A001F0DDF9774829
:101CF000046610BD70B5044600251CB1012C01D04E
:101D0000022C00D104E04FF40E716AA001F0CCF96E
:101D10006548456825F003052543456070BD624868
:101D2000406800F00C00704770B5044600257CB197
:101D3000802C0DD0902C0BD0A02C09D0B02C07D02B
:101D4000C02C05D0D02C03D0E02C01D0F02C00D139
:101D500004E04FF4197157A001F0A6F95248456804
:101D600025F0F0052543456070BD70B5044600259B
:101D70005CB1B4F5806F08D0B4F5A06F05D0B4F5B0
:101D8000C06F02D0B4F5E06F00D104E040F27E21D4
:101D900048A001F089F94448456825F4E0652543E9
:101DA000456070BD70B5044600255CB1B4F5806F28
:101DB00008D0B4F5A06F05D0B4F5C06F02D0B4F56B
:101DC000E06F00D104E04FF426713AA001F06CF905
:101DD0003548456825F4605545EAC405456070BD41
:101DE00070B504460D4604F0E00008B904B104E003
:101DF00040F2BF212FA001F057F90DB1012D00D104
:101E000004E04FF430712BA001F04EF92DB12648BB
:101E1000407A20432449487204E02348407AA04392
:101E20002149487270BD10B504460CB1012C00D197
:101E300004E040F2DB211FA001F036F92348D8303E
:101E4000046010BD70B50446002544B1B4F5804F60
:101E500005D0B4F5004F02D0B4F5404F00D104E0F6
:101E600040F2023113A001F01FF90F48456825F434
:101E700040452543456070BD10B504461CB1012C9A
:101E800001D0042C00D104E04FF4507109A001F0FE
:101E90000BF90020044920310870034981F8200023
:101EA000012C17D0042C13E0001002400000FFF8B2
:101EB000FFFFF6FE656D6C69625C73746D333266AC
:101EC0003130785F7263632E63000000000042428D
:101ED00008D103E00120F449087004E00520F2492C
:101EE000087000E000BF00BF10BD10B504460CB183
:101EF000012C00D105E040F26131AFF2480001F061
:101F0000D3F8EA48046010BD10B50446B4F5807FEC
:101F100005D0B4F5007F02D0B4F5407F00D105E0D4
:101F200040F27231AFF2740001F0BEF8DE482038A2
:101F3000006A2043DC492039086210BD10B5044610
:101F40000CB1012C00D105E04FF46071AFF29C00A0
:101F500001F0AAF8D5484438046010BD30B500211E
:101F6000002200240023D04D203D6D6805F00C01B7
:101F700021B1042905D0082926D105E0CC4D056002
:101F800025E0CB4D056022E0C74D203D6D6805F48E
:101F90007012C54D203D6D6805F48034022505EBB7
:101FA00092421CB9C34D554305600CE0BE4D203D27
:101FB0006D6805F400351DB1BE4D5543056002E066
:101FC000BB4D5543056002E0B94D056000BF00BF41
:101FD000B54D203D6D6805F0F0010909B64D6B5C0B
:101FE0000568DD404560B04D203D6D6805F4E06159
:101FF000090AB14D6B5C4568DD408560AA4D203D06
:102000006D6805F46051C90AAB4D6B5C4568DD40F5
:10201000C560A54D203D6D6805F44041890BA74D75
:102020006B5CC568B5FBF3F5056130BD70B5044662
:102030000D4640F2575024EA000008B904B105E00B
:1020400040F22B41AFF2941001F02EF80DB1012DAA
:1020500000D105E040F22C41AFF2A81001F024F8C5
:102060003DB191482038406920438F49203948616B
:1020700006E08D4820384069A0438B4920394861EB
:1020800070BD70B504460D468D48204008B904B1B6
:1020900005E040F24A41AFF2E41001F005F80DB15D
:1020A000012D00D105E040F24B41AFF2F81000F0F5
:1020B000FBFF3DB17C482038806920437A492039B4
:1020C000886106E0784820388069A0437649203945
:1020D000886170BD70B504460D467A48204008B945
:1020E00004B105E040F26941AFF2382000F0DCFFB6
:1020F0000DB1012D00D105E040F26A41AFF24C2054
:1021000000F0D2FF3DB168482038C06920436649DD
:102110002039C86106E064482038C069A04362499C
:102120002039C86170BD70B504460D466448204032
:1021300008B904B105E040F2A441AFF2882000F0F4
:10214000B3FF0DB1012D00D105E040F2A541AFF282
:102150009C2000F0A9FF3DB153482038C0682043BF
:1021600051492039C86006E04F482038C068A04374
:102170004D492039C86070BD70B504460D465148C0
:10218000204008B904B105E040F2C341AFF2DC20C1
:1021900000F08AFF0DB1012D00D105E040F2C441ED
:1021A000AFF2F02000F080FF3DB13F4820380069D9
:1021B00020433D492039086106E03B48203800694A
:1021C000A04339492039086170BD10B504460CB1EF
:1021D000012C00D105E04FF49B61AFF2283000F0F4
:1021E00063FF32484038046010BD10B504460CB19E
:1021F000012C00D105E040F2E541AFF2483000F09B
:1022000053FF3148C46410BD10B504463CB1052CE1
:1022100005D0042C03D0062C01D0072C00D105E0FA
:1022200040F20551AFF2743000F03EFF1E482038F6
:10223000C47110BD1C482038406A40F080701A49B3
:1022400020394862704770B504460025012C09D03A
:10225000022C07D0042C05D0082C03D0102C01D060
:10226000802C00D105E040F27E51AFF2B83000F092
:102270001BFF0D4820388068204008B1012500E090
:102280000025284670BD10B5044604F0600008B96A
:1022900004B105E040F2AB51AFF2E83000F004FFCA
:1022A00001482038847210BD201002408004424250
:1022B00000127A0000093D001400002024000020D4
:1022C0000200C0FF003601810000424210B5044602
:1022D000FE4884420BD0FE48844208D0FD48844228
:1022E00005D0FD48844202D0FC48844200D103E07E
:1022F0008521FBA000F0D8FEF448844209D10121D9
:102300008803FFF710FF00214FF48040FFF70BFF19
:1023100032E0EF48844209D101214804FFF72CFF45
:1023200000214FF40030FFF727FF25E0E948844201
:1023300009D101218804FFF71FFF00214FF48020FD
:10234000FFF71AFF18E0E448844209D10121C804CC
:10235000FFF712FF00214FF40020FFF70DFF0BE005
:10236000DE48844208D101210805FFF705FF00215E
:102370004FF48010FFF700FF10BD2DE9F04786B045
:1023800005460C460026B24600BFB1460027CF489E
:1023900085420BD0CE48854208D0CE48854205D034
:1023A000CD48854202D0CD48854200D103E0B82116
:1023B000CBA000F079FE206820B1CF492068884288
:1023C00000D203E0B921C6A000F06EFEA08818B1CB
:1023D000A088B0F5805F00D103E0BA21C0A000F072
:1023E00063FEE08858B1E088B0F5805F07D0E088F0
:1023F000B0F5005F03D0E088B0F5405F00D103E0A6
:10240000BB21B7A000F050FE208938B12089B0F57B
:10241000806F03D02089B0F5C06F00D103E0BC21EC
:10242000AFA000F041FE60894FF6F371084010B98B
:10243000608900B103E0BD21A9A000F035FEA089AC
:1024400058B1A089B0F5807F07D0A089B0F5007F92
:1024500003D0A089B0F5407F00D103E0BE21A0A049
:1024600000F022FEA08968B19848854205D09848BE
:10247000854202D09748854200D103E0C22198A04E
:1024800000F012FE2F462E8A4CF6FF700640E088C0
:1024900006432E82AE894EF6F3100640A0882189AD
:1024A0000843618908430643AE81AE8A4FF6FF4078
:1024B0000640A0890643AE8201A8FFF74FFD83487E
:1024C000874202D1DDF810A001E0DDF80CA0A88958
:1024D00000F4004040B10AEBCA0000EB0A1021688A
:1024E0004900B0FBF1F807E00AEBCA0000EB0A1064
:1024F00021688900B0FBF1F86420B8FBF0F0060118
:102500003009642101FB1089A88900F4004040B122
:10251000322000EBC900B0FBF1F000F007000643E9
:1025200008E0322000EB09106421B0FBF1F000F06C
:102530000F0006432E8106B0BDE8F0874FF4165118
:10254000016000218180C18001810C214181002135
:102550008181704770B505460C4600265B48854270
:1025600005D05B48854202D05A48854200D104E03C
:102570004FF499715AA000F097FD208818B1208877
:10258000B0F5006F00D104E040F2331154A000F028
:102590008BFD608818B16088B0F5806F00D104E0D1
:1025A0004FF49A714EA000F07FFDA08818B1A0886A
:1025B000B0F5007F00D104E040F2351148A000F0F2
:1025C00073FDE08818B1E088B0F5807F00D104E0A9
:1025D0004FF49B7142A000F067FD2E8A4FF2FF007E
:1025E0000640208861880843A1880843E1880843A1
:1025F00006432E8270BD0021018041808180C18010
:10260000704770B504460D46304884420BD03048C0
:10261000844208D02F48844205D02F48844202D0FB
:102620002E48844200D104E04FF4B1712CA000F098
:102630003BFD0DB1012D00D104E040F2631128A053
:1026400000F032FD25B1A08940F40050A08104E0E3
:10265000A0894DF6FF710840A08170BD2DE9F047BB
:1026600005460C4617464FF00008C246C1460026F4
:10267000164885420BD01648854208D01548854239
:1026800005D01548854202D01448854200D104E0A7
:1026900040F2891112A000F007FD282C32D040F240
:1026A000277084422ED040F2266084422AD040F225
:1026B0002550844226D040F22440844222D040F665
:1026C000460084421ED040F66A1017E000380140F0
:1026D0000044004000480040004C004000500040D2
:1026E000656D6C69625C73746D3332663130785F2E
:1026F00075736172742E630021AA4400844201D074
:10270000602C00D105E04FF4C571AFF22C0000F051
:10271000CBFC0FB1012F00D105E040F28B11AFF2DD
:10272000400000F0C1FC40F66A1084420FD1F94825
:10273000854205D0F848854202D0F848854200D14C
:1027400005E040F28F11AFF2680000F0ADFC2E46BC
:10275000C4F3421804F01F0A012000FA0AF9B8F184
:10276000010F01D10C3605E0B8F1020F01D110368E
:1027700000E0143627B1306840EA0900306003E019
:10278000306820EA09003060BDE8F08770B5044683
:102790000D461646DF4884420BD0DF48844208D0FD
:1027A000DE48844205D0DE48844202D0DD488442BF
:1027B00000D105E040F2C311AFF2DC0000F074FC80
:1027C0004FF63F70284008B905B105E04FF4E271BB
:1027D000AFF2F40000F068FC0EB1012E00D105E06C
:1027E00040F2C511AFF2081000F05EFC1EB1A08AE5
:1027F0002843A08202E0A08AA843A08270BD70B5E1
:1028000004460D46C34884420BD0C348844208D0D6
:10281000C248844205D0C248844202D0C1488442A2
:1028200000D105E040F2DF11AFF24C1000F03CFCAB
:102830000F2D00DC05E04FF4F071AFF25C1000F0FA
:1028400033FC208A4FF6F07108402082208A28430A
:10285000208270BD70B504460D46AE4884420BD050
:10286000AD48844208D0AD48844205D0AC4884428B
:1028700002D0AC48844200D105E04FF4FB71AFF2C6
:10288000A01000F011FC15B1B5F5006F00D105E006
:1028900040F2F711AFF2B81000F006FCA0894FF239
:1028A000FF710840A081A0892843A08170BD70B548
:1028B00004460D46974884420BD09748844208D07E
:1028C0009648844205D09648844202D09548844276
:1028D00000D105E040F20921AFF2FC1000F0E4FB6A
:1028E0000DB1012D00D105E040F20A21AFF2102018
:1028F00000F0DAFB25B1A08940F00200A08104E0DD
:10290000A0894FF6FD710840A08170BD70B50446E6
:102910000D46804884420BD07F48844208D07F48CF
:10292000844205D07E48844202D07E48844200D151
:1029300005E040F22621AFF2582000F0B5FB0DB1C2
:10294000202D00D105E040F22721AFF26C2000F0ED
:10295000ABFB208A4FF6DF7108402082208A284393
:10296000208270BD70B504460D466A4884420BD083
:102970006948844208D06948844205D06848844246
:1029800002D06848844200D105E040F23921AFF21C
:10299000B02000F089FB0DB1012D00D105E040F21F
:1029A0003A21AFF2C42000F07FFB25B1208A40F429
:1029B0008040208204E0208A4BF6FF71084020828C
:1029C00070BD70B504460D46524884420BD0524843
:1029D000844208D05148844205D05148844202D0F4
:1029E0005048844200D105E040F25321AFF210304C
:1029F00000F05AFBB5F5007F00DA05E04FF41571E1
:102A0000AFF2243000F050FBC5F30800A08070BD89
:102A100010B504463F4884420BD03F48844208D05A
:102A20003E48844205D03E48844202D03D4884421C
:102A300000D105E04FF41971AFF25C3000F034FBC7
:102A4000A088C0F3080010BD10B504463148844288
:102A50000BD03148844208D03048844205D03048F9
:102A6000844202D02F48844200D105E04FF41D710A
:102A7000AFF2943000F018FBA08940F00100A08173
:102A800010BD70B504460D462248844205D0224848
:102A9000844202D02148844200D105E04FF42171E4
:102AA000AFF2C43000F000FB208BC0B22083208B3B
:102AB00040EA0520208370BD70B504460D461548D8
:102AC00084420BD01448844208D01448844205D074
:102AD0001348844202D01348844200D105E04FF4E9
:102AE0002671AFF2044000F0DFFA208B00F47F4043
:102AF0002083208B2843208370BD70B504460D468B
:102B00000448844205D00448844202D003488442E9
:102B10000AD10FE000380140004400400048004066
:102B2000004C00400050004040F2AB21AFF250405A
:102B300000F0BAFA0DB1012D00D105E04FF42B7170
:102B4000AFF2644000F0B0FA25B1A08A40F0200056
:102B5000A08204E0A08A4FF6DF710840A08270BD19
:102B600070B504460D46F948844205D0F8488442C1
:102B700002D0F848844200D105E04FF43171AFF241
:102B8000A04000F091FA0DB1012D00D105E040F216
:102B9000C521AFF2B44000F087FA25B1A08A40F019
:102BA0001000A08204E0A08A4FF6EF710840A082D6
:102BB00070BD70B504460D46E44884420BD0E4482D
:102BC000844208D0E348844205D0E348844202D0DE
:102BD000E248844200D105E040F2DE21AFF200502D
:102BE00000F062FA0DB1012D00D105E040F2DF21C5
:102BF000AFF2145000F058FA25B1A08A40F0080056
:102C0000A08204E0A08A4FF6F7710840A08270BD50
:102C100070B504460D46CD4884420BD0CC48844262
:102C200008D0CC48844205D0CB48844202D0CB485F
:102C3000844200D105E040F2FD21AFF25C5000F08B
:102C400033FA0DB1012D00D105E040F2FE21AFF2C3
:102C5000705000F029FA25B1A08940F40040A0810D
:102C600003E0A089C0F30E00A08170BD70B50446DA
:102C70000D46B64884420BD0B548844208D0B548CA
:102C8000844205D0B448844202D0B448844200D182
:102C900005E04FF44671AFF2B85000F005FA0DB1FF
:102CA000012D00D105E040F21931AFF2CC5000F017
:102CB000FBF925B1A08A40F40060A08204E0A08A5C
:102CC0004FF2FF710840A08270BD70B504460D46FA
:102CD0009E4884420BD09E48844208D09D4884423E
:102CE00005D09D48844202D09C48844200D105E032
:102CF00040F23531AFF2186000F0D6F9042D00D063
:102D000005B905E040F23631AFF22C6000F0CCF9A5
:102D1000A08A4FF6FB710840A082A08A2843A082B7
:102D200070BD70B504460D46884884420BD0884873
:102D3000844208D08748844205D08748844202D024
:102D40008648844200D105E04FF45271AFF27060C2
:102D500000F0AAF90DB1012D00D105E040F2493192
:102D6000AFF2846000F0A0F925B1A08A40F0020023
:102D7000A08204E0A08A4FF6FD710840A08270BDD9
:102D800070B505460C460026704885420BD0704849
:102D9000854208D06F48854205D06F48854202D0F1
:102DA0006E48854200D105E040F26E31AFF2D0604E
:102DB00000F07AF9012C13D0802C11D0402C0FD0C8
:102DC000202C0DD0102C0BD0B4F5807F08D0B4F59A
:102DD000007F05D0082C03D0042C01D0022C00D198
:102DE00005E040F26F31AFF2087000F05DF9B4F524
:102DF000007F0FD15548854205D05548854202D005
:102E00005448854200D105E040F27331AFF2307092
:102E100000F04AF92888204008B1012600E0002689
:102E2000304670BD70B504460D46484884420BD00C
:102E30004748844208D04748844205D046488442E7
:102E400002D04648844200D105E040F29E31AFF204
:102E5000707000F029F94FF69F40284008B905B17D
:102E600005E040F29F31AFF2887000F01DF905F4E3
:102E70000070B0F5007F0FD13448844205D034484B
:102E8000844202D03348844200D105E040F2A331AD
:102E9000AFF2B47000F008F9E843208070BD2DE96E
:102EA000F04705460C4600270026B046B1462748A5
:102EB00085420BD02648854208D02648854205D059
:102EC0002548854202D02548854200D105E040F2E0
:102ED000C131AFF2F47000F0E7F8282C20D040F2B6
:102EE000277084421CD040F22660844218D040F201
:102EF0002550844214D040F22440844210D040F641
:102F0000460084420CD040F66A10844208D0B4F5E2
:102F1000587F05D0B4F5187F02D0B4F5B07F00D14A
:102F200005E040F2C231AFF6480000F0BDF840F6CF
:102F30006A1084421AD10548854205D0044885426A
:102F400002D0044885420BD110E000000038014057
:102F50000044004000480040004C00400050004049
:102F600040F2C631AFF6880000F09EF8C4F3421874
:102F700004F01F06012000FA06F6B8F1010F02D195
:102F8000A889064007E0B8F1020F02D1288A06405E
:102F900001E0A88A06402712012000FA07F72888D6
:102FA00007401EB117B14FF0010901E04FF00009D1
:102FB0004846BDE8F0872DE9F04104460D4600265D
:102FC0000027244884420BD02348844208D0234859
:102FD000844205D02248844202D02248844200D153
:102FE00005E040F20A41AFF6081000F05DF840F24B
:102FF000266085420BD040F22550854207D040F62E
:103000004600854203D040F66A10854200D105E0B3
:1030100040F20B41AFF6381000F046F840F66A1067
:1030200085420FD10B48844205D00B48844202D020
:103030000A48844200D105E040F20F41AFF660102B
:1030400000F032F82E120120B04087B2F843208001
:10305000BDE8F081003801400044004000480040D5
:10306000004C00400050004070B504460D460A2C4C
:1030700002D10D2000F020F8204600F01DF870BDB0
:1030800070B5054600F079F8044600F015F870BDFB
:1030900001464FF0FF30704710B50446204600F05F
:1030A0000BF810BD00BFFEE700BFFEE710B500F053
:1030B0001FF901F03EFA10BD00BF3A49098801F03E
:1030C00080010029F9D0C0F30801364A121D118091
:1030D00000BF3549098801F080010029F9D0C0F30B
:1030E0000801314A121D1180704730A00BE000BF6B
:1030F0002C49098801F080010029F9D010F8011B42
:10310000284A121D118001780029F0D170472FA0A4
:103110000BE000BF2449098801F080010029F9D0A3
:1031200010F8011B204A121D118001780029F0D1EE
:1031300070472EA00BE000BF3449098801F08001E0
:103140000029F9D010F8011B304A121D11800178B6
:103150000029F0D170472EA00BE000BF3449098848
:1031600001F080010029F9D010F8011B304A121D2E
:10317000118001780029F0D1704700BF094800880C
:1031800000F020000028F9D00648001D0088C0B2D9
:1031900070470448008800F0200008B10120704703
:1031A0000020FCE7003801400044004055534152E4
:1031B0005431206973207072696E74696E6720489B
:1031C000656C6C6F20576F726C64210055534152CF
:1031D0005432206973207072696E74696E6720487A
:1031E000656C6C6F20576F726C64210055534152AF
:1031F0005433206973207072696E74696E67204859
:10320000656C6C6F20576F726C6421000048004041
:103210005541525434206973207072696E74696E1E
:10322000672048656C6C6F20576F726C64210000DA
:10323000004C004010B540F225511248FFF72FFE18
:1032400078B11048FFF7E4FB00F07F0421460D48F9
:10325000FFF7B7FB00BF80210A48FFF791FD002868
:10326000F9D010BD70477047704700BFFEE700BF40
:10327000FEE700BFFEE700BFFEE7704770477047FC
:10328000704700000038014008B525208DF8000087
:1032900001208DF8010000208DF8020001208DF83A
:1032A00003006846FDF79DF808BD08B5012105201B
:1032B000FEF7E7FE01218803FEF7E3FE4FF40070FE
:1032C000ADF8000003208DF8020018208DF80300EF
:1032D00069461648FDF736FF4FF48060ADF80000F0
:1032E00004208DF8030069461048FDF72BFF08BD48
:1032F0001FB5FFF7C9FFFFF7D8FF4FF4612000901B
:103300000020ADF80400ADF80600ADF80800ADF8F7
:103310000C000C20ADF80A0069460548FFF72DF8AF
:1033200001210348FFF76DF91FBD000000080140AF
:10333000003801400948804709480047FEE7FEE79A
:10334000FEE7FEE7FEE7FEE7FEE7FEE7FEE7FEE755
:1033500004480549054A064B70470000AB020008C7
:1033600031010008B8050020B80B0020B807002084
:10337000B8070020F0B5EF4A00250024002320E024
:10338000B1FBF2F6303606F0FF0C2E466D1C00F84D
:1033900006C0B1FBF2F602FB16110A26B2FBF6F2EA
:1033A0006E1E865D302E01D1012600E000260CB98C
:1033B000012700E000273E400EB1002500E0641C1C
:1033C0005B1C0A2BDCD3F0BD70B502460C46002115
:1033D000002500231078302843D15078782802D077
:1033E000507858283DD1907808B9002070BD02214E
:1033F00030E0505C10B9236001252DE0505C41287D
:1034000002DB505C46280BDD505C612802DB505C1F
:10341000662805DD505C302819DB505C392816DC45
:10342000505C302805DB505C392802DC505C3038B9
:103430000AE0505C412805DB505C462802DC505C09
:10344000373801E0505C573800EB031301E00025EA
:1034500002E0491C0B29CCD300BF0B2934D3002533
:1034600032E000212AE0505C10B92360012527E0FA
:10347000505C6B2802D0505C4B2804D119B19B02E0
:10348000236001251CE0505C6D2802D0505C4D2863
:1034900004D119B11B052360012511E0505C3028CF
:1034A00009DB505C392806DC505C303803EB8306BE
:1034B00000EB460301E0002502E0491C0B29D2D3B2
:1034C00000BF0B2900D3002528468FE710B504461E
:1034D00021469948FFF775FA00BF80219648FFF70B
:1034E0004FFC0028F9D010BD10B5044603E0207849
:1034F000FFF7ECFF641C20780028F8D110BD10B550
:10350000044620218C48FFF73BFC28B18A48001D67
:1035100000882070012010BD0020FCE708B50020C5
:10352000009004E06846FFF7EAFF00B100E0F9E729
:1035300000BF9DF8000008BD70B5064600250024B8
:1035400000BFFFF7EBFF04460D2C00D11AE0082C5A
:1035500005D11DB179A0FFF7C7FF6D1E11E0802DC9
:1035600004D377A0FFF7C0FF00250AE0202C07DB7B
:103570007E2C05DC28466D1C34542046FFF7A6FF40
:1035800000BFDEE700BF76A0FFF7AEFF002070555A
:1035900070BD1FB5044623E06846FFF7CDFF9DF8D8
:1035A000000000B91CE09DF80000612803D09DF8E0
:1035B0000000412808D19DF8010028B969A0FFF753
:1035C00093FF002004B010BD21466846FFF7FCFEC3
:1035D00018B969A0FFF788FF01E00120F2E700BFFA
:1035E000DAE701B500200099C1F30A021AB10122FD
:1035F00002EBD12000E0C80A08BD2DE9F047002405
:103600000025012602274FF004084FF00109FDF7BD
:1036100054FC05465E48006828405D4909688842B8
:1036200048D0FDF746FC04465948006828435849ED
:103630000860FDF753F9814655480068401C28B1E1
:1036400053480068C043FDF7DFFA814604F00700E5
:10365000072811D004F0010000B9002604F0020090
:1036600000B9002704F0040008B94FF000084246F2
:1036700039463046FDF793FBB9F1040F16D145A04A
:10368000FFF732FF4B48FFF72FFF00BFBFF34F8F0D
:103690004948006800F4E06048490843001D464975
:1036A0000860BFF34F8F00BF00BFFEE744A0FFF7E5
:1036B0001BFF02E04DA0FFF717FFBDE8F0870024D5
:1036C00053480068A0F10060000B524908600846AA
:1036D00000683E2808D20846017801208840401E34
:1036E000C0432B49086003E04FF0004028490860C0
:1036F000FDF7E3FB26490968084025490968884227
:1037000003D001204449086002E0002042490860DB
:103710003DE142A0FFF7E8FE50A0FFF7E5FE5FA005
:10372000FFF7E2FE6DA0FFF7DFFE3B48006800B147
:10373000F4E0F6E000CA9A3B003801400820080097
:10374000436F6D6D616E6420737472696E67207370
:10375000697A65206F766572666C6F770D0A000076
:103760000A0D0000557365722043616E63656C6CD1
:103770006564200D0A0000004572726F722C2049AA
:103780006E70757420616761696E3A200D0A0000E1
:103790003400002057726974652050726F7465633D
:1037A00074696F6E2064697361626C65642E2E2E7D
:1037B0000D0A0000D04600080CED00E00000FA05FC
:1037C0004572726F723A20466C6173682077726935
:1037D000746520756E70726F74656374696F6E20A6
:1037E0006661696C65642E2E2E0D0A00466C61734D
:1037F00068206D656D6F7279206E6F7420777269C5
:1038000074652070726F7465637465640D0A0000DE
:103810003C00002030000020380000200D0A3D3D13
:103820003D3D3D3D3D3D3D3D3D3D3D3D3D3D3D3DC8
:10383000204D61696E204D656E75203D3D3D3D3DDD
:103840003D3D3D3D3D3D3D3D3D3D3D3D3D3D3D3DA8
:103850003D3D3D3D3D3D3D0D0A0A00002020446FA9
:10386000776E6C6F616420496D61676520546F20CD
:103870007468652053544D33324631307820496E98
:103880007465726E616C20466C617368202D2D2DFD
:103890002D2D2D2D20310D0A0A00000020205570FD
:1038A0006C6F616420496D6167652046726F6D20A1
:1038B0007468652053544D33324631307820496E58
:1038C0007465726E616C20466C617368202D2D2DBD
:1038D0002D2D2D2D20320D0A0A00000020204578C4
:1038E000656375746520546865204E657720507255
:1038F0006F6772616D202D2D2D2D2D2D2D2D2D2DD0
:103900002D2D2D2D2D2D2D2D2D2D2D2D2D2D2D2DE7
:103910002D2D2D2D20330D0A0A0000001CA0FFF7CD
:10392000E3FD2BA0FFF7E0FDFFF7F8FD0446312C87
:1039300002D100F0B3F82AE0322C02D100F0A4F951
:1039400025E0332C10D132484068324908600846DF
:103950000068314908602E49086880F3088800BF74
:103960002D480068804712E0342C06D12B480068AF
:10397000012802D1FFF741FE09E02848006818B984
:1039800027A0FFF7B1FD02E034A0FFF7ADFDC0E6D0
:10399000202044697361626C6520746865207772C9
:1039A0006974652070726F74656374696F6E202D21
:1039B0002D2D2D2D2D2D2D2D2D2D2D2D2D2D2D2D37
:1039C0002D2D2D2D2D2D2D2D20340D0A0A0000001A
:1039D0003D3D3D3D3D3D3D3D3D3D3D3D3D3D3D3D17
:1039E0003D3D3D3D3D3D3D3D3D3D3D3D3D3D3D3D07
:1039F0003D3D3D3D3D3D3D3D3D3D3D3D3D3D3D3DF7
:103A00003D3D3D3D3D3D3D3D3D3D0D0A0A00000033
:103A1000006000082C000020280000203800002052
:103A2000496E76616C6964204E756D626572202105
:103A3000203D3D3E20546865206E756D62657220A4
:103A400073686F756C64206265206569746865725F
:103A500020312C2032206F7220330D00496E7661A8
:103A60006C6964204E756D6265722021203D3D3E7B
:103A700020546865206E756D6265722073686F757D
:103A80006C642062652065697468657220312C2041
:103A9000322C2033206F7220340D00003EB51DA261
:103AA00007CA8DE8070000241DA0FFF71DFD2B4865
:103AB00000F0DCF90446002C16DD2948FFF714FD60
:103AC0002848FFF711FD21466846FFF753FC26A062
:103AD000FFF70AFD6846FFF707FD26A0FFF704FD84
:103AE00027A0FFF701FD14E0601C18B92AA0FFF71A
:103AF000FBFC0EE0A01C18B937A0FFF7F5FC08E0AE
:103B0000E01C18B93BA0FFF7EFFC02E03FA0FFF775
:103B1000EBFC3EBD20202020202020202020000083
:103B200057616974696E6720666F722074686520DA
:103B300066696C6520746F2062652073656E742001
:103B40002E2E2E2028707265737320276127207413
:103B50006F2061626F7274290A0D0000540000200A
:103B60001C470008540400200A0D2053697A653A66
:103B7000200000002042797465730D0A00000000E7
:103B80002D2D2D2D2D2D2D2D2D2D2D2D2D2D2D2D65
:103B90002D2D2D0A000000000A0A0D5468652069C9
:103BA0006D6167652073697A65206973206869674C
:103BB000686572207468616E2074686520616C6C41
:103BC0006F776564207370616365206D656D6F72DA
:103BD00079210A0D000000000A0A0D566572696617
:103BE00069636174696F6E206661696C6564210A3E
:103BF0000D0000000D0A0A41626F72746564206254
:103C00007920757365722E0A0D0000000A0D466159
:103C1000696C656420746F207265636569766520E0
:103C20007468652066696C65210A0D00FCF7E1FC8B
:103C3000FFF73CFA0D48FFF757FC0D48FFF754FC1F
:103C40000C48FFF751FC0C48FFF74EFC0948FFF702
:103C50004BFC0A48FFF748FC0448FFF745FC08A066
:103C6000FFF742FCFFF72BFD00BFFEE7A04800086E
:103C7000BC4700087047000854480008084800087E
:103C80000D0A0D0A0000000010B500240DA0FFF77A
:103C90002BFCFFF743FC43280FD14FF47A2217A1E6
:103CA0001C4800F0CEFA04461CB11BA0FFF71CFC18
:103CB00006E024A0FFF718FC02E02BA0FFF714FC9D
:103CC00010BD00000A0A0D53656C656374205265CF
:103CD00063656976652046696C65202E2E2E202846
:103CE000707265737320616E79206B657920746FD3
:103CF0002061626F7274290A0D00000055706C6FAC
:103D000061646564466C617368496D6167652E62C4
:103D1000696E0000006000080A0D4572726F722023
:103D20004F636375726564207768696C65205472AF
:103D3000616E736D697474696E672046696C650A9B
:103D40000D0000000A0D46696C6520547261736DA8
:103D50006974746564205375636365737366756C09
:103D60006C79200A0D0000000D0A0A41626F72741E
:103D7000656420627920757365722E0A0D0000005B
:103D800070B505460C4606E02846FFF7B8FB01284B
:103D900001D1002070BD201EA4F10104F4D1401E09
:103DA000F8E710B504462046FFF790FB002010BD51
:103DB0002DE9F84304460D46904600202860414610
:103DC0006846FFF7DDFF18B14FF0FF30BDE8F8831C
:103DD0009DF80000182813D006DC012809D002281D
:103DE00009D0042820D109E041281AD061281BD12C
:103DF00018E080271BE04FF4806718E00020E5E71B
:103E000041466846FFF7BCFF40B99DF800001828FE
:103E100004D14FF0FF3028600020D7E74FF0FF308B
:103E2000D4E700BF0120D1E74FF0FF30CEE700BF5D
:103E30009DF800002070012609E0A0194146FFF717
:103E40009FFF10B14FF0FF30C0E7701C86B2781DA5
:103E50008642F2DB6178A07880F0FF00814202D0D8
:103E60004FF0FF30B2E72F600020AFE72DE9F04FB1
:103E7000ADF22C4D064600200190F748F749086046
:103E80004FF0000B4FF0000A0020029000BF002707
:103E900000200390B04600BF4FF4801204A909A887
:103EA000FFF786FF10B101287ED1D0E04FF0000A65
:103EB0000498B0F1FF3F01D070B907E00620FFF78A
:103EC00070FF00200DF22C4DBDE8F08F0620FFF7AB
:103ED00068FF01200390B8E09DF82500F9B2884200
:103EE00003D01520FFF75DFFAFE0002F6ED19DF8E6
:103EF0002700002863D000250DF1270405E014F801
:103F0000012B28466D1CD6490A54207808B1FF2D94
:103F1000F5DD002228466D1CD1490A540025641C99
:103F200005E014F8012B28466D1C05A90A542078D9
:103F3000202801D0102DF4DB002228466D1C05A995
:103F40000A5401A905A8FFF73FFA0198B0F5801FB0
:103F500008DB1820FFF725FF1820FFF722FF4FF09E
:103F6000FF30AFE70198FFF73CFBBE490860002037
:103F7000BD49086010E0B9490968BC4A1288BA4BCB
:103F80001B6802FB0310FCF7BAFBB9490870B6487E
:103F90000068401CB4490860B3480068B14909682A
:103FA000884205D2B24800E05AE000780428E2D006
:103FB0000620FFF7F6FE4320FFF7F3FE42E006205F
:103FC000FFF7EFFE0120039083463EE00DF127014D
:103FD0004046049A00F0CFFAA64806604FF0000968
:103FE00023E0A448006801689C480068FCF7D9FCFD
:103FF0009A48006800689F4909680968884208D0A3
:104000001820FFF7CEFE1820FFF7CBFE6FF001005F
:1040100058E792480068001D90490860954800687C
:10402000001D9449086009F104090498814506DAE5
:10403000894901980844894909688842D1D80620ED
:10404000FFF7AFFE7F1C0120029000BF1CE018208C
:10405000FFF7A7FE1820FFF7A4FE6FF0020031E77C
:104060000298002801DD0AF1010ABAF1050F07DD07
:104070001820FFF796FE1820FFF793FE002021E797
:104080004320FFF78EFE00BF00BF039800283FF4D7
:1040900003AF00BF00BFBBF1000F3FF4F8AE00BF9D
:1040A00000BF01980EE70146002070472DE9FE434E
:1040B00005460F4690460120287000206870FF20BA
:1040C000A870002404E0395DE01C2954601C84B20F
:1040D000385D08B1FF2CF6DD0021E01C295468464C
:1040E000D8F80010FFF746F90026201D84B208E03A
:1040F0003046711C8EB21DF800202046611C8CB227
:104100002A541DF806000028F2D1264603E00020BC
:10411000A855701C86B2832EF9DBBDE8FE83F0B58E
:10412000074614461D46B5F5806F02D34FF4806CE8
:1041300001E04FF0800C63469D4201D2AC4600E0A6
:104140009C461FFA8CF2B3F5806F04D14FF0020C3D
:1041500081F800C003E04FF0010C81F800C04C7002
:104160006FEA040C81F802C03E46032007E016F80F
:1041700001CB01F800C000F1010C1FFA8CF002F134
:10418000030C6045F3DB9A420EDC1FFA8CF007E06B
:104190004FF01A0C01F800C000F1010C1FFA8CF06E
:1041A00003F1030C6045F3DBF0BD10B503460C468C
:1041B000194644F4807200BF4900520002F4807036
:1041C00000B1491C01F4803010B141F2210041409E
:1041D00002F480300028EFD088B210BDF0B505465B
:1041E0000E460024AF1905E015F8011BA0B2FFF739
:1041F000DCFF0446BD42F7D3A0B20021FFF7D5FF94
:10420000044620460021FFF7D0FF04462046F0BDBB
:1042100030B502460023541802E012F8015B2B442B
:10422000A242FAD3D8B230BD70B505460E4600247E
:1042300004E0285DFFF7B5FD601C84B2B442F8DBF2
:1042400070BD2DE9F74FADF5A36D002001908146BB
:1042500000248046002616E0006000083C00002094
:1042600054040020480000204400002040000020AA
:104270004C00002050000020DDF81C05805D04A9E2
:104280008855701CC6B2FF2EF6DB012001900DF59B
:10429000A46204A944A8FFF709FF00BF832144A832
:1042A000FFF7C2FF019860B180210DF21310FFF7F4
:1042B00095FF05462812FFF774FDE8B2FFF771FD80
:1042C00008E080210DF21310FFF7A2FF039003987E
:1042D000FFF767FD42F2107102A8FFF751FD30B9F8
:1042E0009DF80800062803D14FF0010800E0641C87
:1042F000B8F1000F01D10A2CD0D30A2C04D3E0B2BC
:104300000DF2245DBDE8F08FDDF818A5DDF82095ED
:104310004FF0010B59E00BF0FF024B4644A9504609
:10432000FFF7FDFE4FF0000800208DF80800002484
:1043300000BFB9F5806F02D34FF4806700E080279B
:10434000F81C81B244A8FFF76FFF019860B13946AD
:104350000DF21310FFF742FF05462812FFF721FD6B
:10436000E8B2FFF71EFD08E039460DF21310FFF723
:104370004FFF03900398FFF714FD544902A8FFF77D
:10438000FFFCC0B99DF80800062814D14FF00108C1
:10439000B9450CD9BA44A9EB0709BBF57A7F01D11D
:1043A000FF20ADE70BF101001FFA80FB04E0BA44E7
:1043B0004FF0000900E0641CB8F1000F01D10A2C95
:1043C000B7D30A2C01D3E0B29AE7B9F1000FA2D11A
:1043D0004FF0000800208DF80800002400BF0420E2
:1043E000FFF7DFFC42F2107102A8FFF7C9FC30B9F9
:1043F0009DF80800062802D14FF0010800E0641C77
:10440000B8F1000F01D10A2CE9D30A2C01D3E0B294
:1044100076E74FF0000800208DF808000024012006
:104420008DF8100100208DF81101FF208DF8120188
:10443000032604E0002044A98855701CC6B2832ED0
:10444000F8DB00BF832144A8FFF7EEFE80210DF2C8
:104450001310FFF7C3FE05462812FFF7A2FCE8B2CF
:10446000FFF79FFC42F2107102A8FFF789FC30B9F8
:104470009DF80800062803D14FF0010800E0641CF5
:10448000B8F1000F01D10A2CDCD30A2C01D3E0B221
:1044900036E700BF0420FFF784FC42F2107102A847
:1044A000FFF76EFC30B99DF80800062802D14FF0E6
:1044B000010800E0641CB8F1000F01D10A2CE9D317
:1044C0000A2C01D3E0B21BE7002019E7A086010007
:1044D00008B526208DF8000000208DF801008DF829
:1044E000020001208DF803006846FBF77AFF08BD43
:1044F00008B501210520FDF7C4FD01214804FDF7A1
:10450000E9FD0420ADF8000003208DF8020018201A
:104510008DF8030069461548FCF714FE0820ADF835
:10452000000004208DF8030069461048FCF70AFEDD
:1045300008BD1FB5FFF7CCFFFFF7DAFF4FF461208E
:1045400000900020ADF80400ADF80600ADF80800BA
:10455000ADF80C000C20ADF80A0069460448FDF7E0
:104560000CFF01210248FEF74CF81FBD0008014076
:10457000004400407047032A40F2308010F0030CE2
:1045800000F0158011F8013BBCF1020F624498BFA6
:1045900011F801CB00F8013B38BF11F8013BA2F143
:1045A000040298BF00F801CB38BF00F8013B11F0BE
:1045B000030300F02880083AC0F0088051F8043B5B
:1045C000083A51F804CBA0E80810F5E7121D5CBFCB
:1045D00051F8043B40F8043BAFF30080D20724BFFE
:1045E00011F8013B11F801CB48BF11F8012B24BF92
:1045F00000F8013B00F801CB48BF00F8012B7047E1
:1046000070477047704710B5203AC0F00B80B1E892
:104610001850203AA0E81850B1E81850A0E81850F7
:10462000BFF4F5AF5FEA027C24BFB1E81850A0E800
:10463000185044BF18C918C0BDE810405FEA827C1A
:1046400024BF51F8043B40F8043B08BF7047D20731
:1046500028BF31F8023B48BF11F8012B28BF20F8D2
:10466000023B48BF00F8012B7047754600F02CF85C
:10467000AE4605006946534620F00700854618B04F
:1046800020B5FEF765FEBDE820404FF000064FF074
:1046900000074FF000084FF0000B21F00701AC4677
:1046A000ACE8C009ACE8C009ACE8C009ACE8C00996
:1046B0008D46704710B50446AFF300802046BDE834
:1046C0001040FBF77CBD00000048704754050020F7
:1046D0002E2E2E616E6420612053797374656D20D7
:1046E00052657365742077696C6C2062652067651C
:1046F0006E65726174656420746F2072652D6C6FD5
:10470000616420746865206E6577206F7074696FCE
:104710006E2062797465730D0A0000000A0A0D208C
:1047200050726F6772616D6D696E6720436F6D7057
:104730006C65746564205375636365737366756C2B
:104740006C79210A0D2D2D2D2D2D2D2D2D2D2D2D5D
:104750002D2D2D2D2D2D2D2D2D2D2D2D2D2D2D2D89
:104760002D2D2D2D2D0D0A204E616D653A20000056
:104770000D0A3D2020202020202020202020202045
:104780002020202020202020202020202020202029
:104790002020202020202020202020202020202019
:1047A0002020202020202020202020202020202009
:1047B000202020202020203D000000000D0A3D2068
:1047C00020202020202020202020202020284329B5
:1047D00020434F50595249474854203230313020FD
:1047E00053544D6963726F656C656374726F6E6963
:1047F0006373202020202020202020202020202023
:104800002020203D000000000D0A3D202020202017
:104810002020202020202020202020202020202098
:10482000202020202020202020202020202042790D
:10483000204D4344204170706C69636174696F6EF0
:10484000205465616D202020202020202020203D44
:10485000000000000D0A3D2020202020496E2D413F
:1048600070706C69636174696F6E2050726F6772EB
:10487000616D6D696E67204170706C696361746908
:104880006F6E20202856657273696F6E20332E3349
:104890002E302920202020202020203D0000000054
:1048A0000D0A3D3D3D3D3D3D3D3D3D3D3D3D3D3D9B
:1048B0003D3D3D3D3D3D3D3D3D3D3D3D3D3D3D3D28
:1048C0003D3D3D3D3D3D3D3D3D3D3D3D3D3D3D3D18
:1048D0003D3D3D3D3D3D3D3D3D3D3D3D3D3D3D3D08
:1048E0003D3D3D3D3D3D3D3D000000000C49000883
:1048F00000000020540000006C010008604900081E
:1049000054000020640B00008801000800A24A0443
:10491000000000000000000001020304060708096F
:104920000000000001020304010203040607080955
:104930000204060800000000000000000000000063
:1049400000000000000000000060000800080000F7
:104950000000000000000000040000000000000053
:040000050800333587
:00000001FF
