:020000040800F2
:10000000B80B0020013A0008753A0008773A00085A
:100010007B3A00087F3A0008833A0008000000009D
:10002000000000000000000000000000873A000807
:10003000893A0008000000008B3A00088D3A000859
:10004000733A00081B3A00081B3A00081B3A0008E4
:100050001B3A00081B3A00081B3A00081B3A00082C
:100060001B3A00081B3A00081B3A00081B3A00081C
:100070001B3A00081B3A00081B3A00081B3A00080C
:100080001B3A00081B3A00081B3A00081B3A0008FC
:10009000713A00081B3A00081B3A00081B3A000896
:1000A0001B3A00081B3A00081B3A00081B3A0008DC
:1000B0001B3A00081B3A00081B3A00081B3A0008CC
:1000C0001B3A00081B3A00081B3A00081B3A0008BC
:1000D0001B3A0008413A00081B3A00081B3A000886
:1000E0001B3A00081B3A00081B3A00081B3A00089C
:1000F0001B3A00081B3A00081B3A00081B3A00088C
:100100001B3A00081B3A00081B3A00081B3A00087B
:100110001B3A00081B3A00081B3A00081B3A00086B
:100120001B3A00081B3A00081B3A00081B3A00085B
:1001300000F002F800F03AF80AA090E8000C8244BF
:100140008344AAF10107DA4501D100F02FF8AFF29C
:10015000090EBAE80F0013F0010F18BFFB1A43F0A5
:1001600001031847B0450000D0450000103A24BFF5
:1001700078C878C1FAD8520724BF30C830C144BF0C
:1001800004680C607047000000230024002500264E
:10019000103A28BF78C1FBD8520728BF30C148BFEA
:1001A0000B6070471FB51FBD10B510BD04F06CF992
:1001B0001146FFF7F7FF03F01BFC04F08AF903B4C4
:1001C000FFF7F2FF03BC04F08FF900000CB500202C
:1001D000019000906B48006840F4803069490860E5
:1001E00000BF6848006800F4003000900198401C8F
:1001F0000190009818B90198B0F5A06FF1D161484D
:10020000006810F4003F02D00120009001E00020BF
:1002100000900098012842D15B48006840F010002F
:10022000594908600846006820F003000860084645
:10023000006840F002000860524840685149486038
:100240000846406848600846406840F4806048605E
:100250000846406820F47C1048600846406840F436
:10026000E81048600846006840F08070086000BFF1
:100270004448006810F0007FFAD04248406820F0FF
:100280000300404948600846406840F0020048606A
:1002900000BF3C48406800F00C000828F9D10CBDB4
:1002A00010B5FFF793FF10BD10B53648006840F059
:1002B0000100344908600846406834490840314923
:1002C000486008460068324908402E4908600846E0
:1002D000006820F4802008600846406820F4FE0092
:1002E00048604FF41F008860FFF7DAFF4FF00060AE
:1002F0002849086010BD10B5002100200022214BC4
:100300005B6803F00C0121B1042906D0082928D12B
:1003100007E0214B214C236027E01F4B1F4C23603B
:1003200023E0184B5B6803F47010164B5B6803F412
:100330008032022303EB904022B9194B4343174C00
:1003400023600DE00F4B5B6813F4003F04D0144BA7
:100350004343124C236003E00F4B43430F4C236095
:1003600003E00D4B0D4C236000BF00BF054B5B68E5
:10037000C3F303130B4CE15C084B1B68CB40074CE9
:10038000236010BD00100240002002400000FFF872
:10039000FFFFF6FE08ED00E000127A0000000020EA
:1003A00000093D000400002010B50446B4F5E06FDC
:1003B0000BD0B4F5C06F08D0B4F5A06F05D0B4F57C
:1003C000806F02D0B4F5407F00D103E063215EA0CE
:1003D00002F040FE604820436049086010BD2DE9EE
:1003E000F0410446002500270F26E07810B1E078A0
:1003F000012800D103E0752153A002F02BFE6078A4
:10040000102800DA03E076214FA002F023FEA07846
:10041000102800DA03E077214BA002F01BFEE07801
:1004200008B34E48006800F4E060C0F5E060050ADB
:10043000C5F10407EE40607800FA07F5A078304077
:1004400005432D01464822788554207800F01F018D
:1004500001208840217849114FF0E02202EB810110
:10046000C1F8000109E0207800F01F010120884058
:100470003C492278521141F82200BDE8F08170B564
:1004800004460D46B4F1005F02D0B4F1006F00D114
:1004900003E09F212CA002F0DDFD3348854200D20D
:1004A00003E0A02128A002F0D5FD304905EA0100B3
:1004B00020432A49091F086070BD70B504460D46E7
:1004C000102C03D0042C01D0022C00D103E0B22167
:1004D0001DA002F0BFFD0DB1012D00D103E0B3213D
:1004E00019A002F0B7FD3DB11C48001D0068204373
:1004F0001A49091D086006E01848001D0068A0435D
:100500001649091D086070BD10B50446042C01D0C1
:10051000601D00D103E0CA210BA002F09BFD042C5A
:1005200008D14FF0E020006940F004004FF0E021D6
:10053000086107E04FF0E020006920F004004FF070
:10054000E021086110BD0000656D6C69625C6D6939
:1005500073632E63000000000000FA050CED00E05C
:1005600000E400E080E100E0FFFF0F0080FFFF1FDC
:1005700070B5044600251CB1012C01D0022C00D11D
:1005800004E040F20311F5A002F064FDF9480568AB
:1005900005F038052543056070BD10B50446082CEC
:1005A00000D004B904E04FF48E71ECA002F052FDCB
:1005B000F048006820F00800EE490860084600682E
:1005C0002043086010BD10B50446102C00D004B9BB
:1005D00004E040F22F11E1A002F03CFDE548006884
:1005E00020F01000E34908600846006820430860D6
:1005F00010BDE148DF494860E0484860DE48486493
:10060000DE4848647047DC48DA494860DB484860A7
:100610007047D948D7494864D84848647047D54896
:10062000006940F08000D34908610846006D40F041
:10063000800008657047CF48006940F08000CD49D0
:1006400008617047CB48006D40F08000C9490865DB
:1006500070470420C749C96C11F0010F01D0012077
:100660000EE0C449C96C11F0040F01D0022007E06C
:10067000C049C96C11F0100F01D0032000E0042024
:10068000704700B502460423FFF7E3FF034603E08B
:10069000FFF7DFFF0346521E012B01D1002AF7D1DD
:1006A00002B90523184600BD0420B249C96811F0FB
:1006B000010F01D001200EE0AE49C96811F0040F0E
:1006C00001D0022007E0AB49C96811F0100F01D03A
:1006D000032000E00420704700B502460423FFF722
:1006E000E3FF034603E0FFF7DFFF0346521E012B43
:1006F00001D1002AF7D102B90523184600BD70B513
:1007000004460425B4F1006F03D39D48844200D20F
:1007100004E040F2A71191A002F09CFC99488442A9
:100720001FD24FF43020FFF7D7FF0546042D37D1F5
:100730009048006940F002008E4908610846446113
:10074000006940F0400008614FF43020FFF7C4FF1B
:1007500005468848006941F6FD71084085490861F1
:100760001EE04FF43020FFF78CFF0546042D17D113
:100770008048006D40F002007E49086508464465E7
:10078000006D40F0400008654FF43020FFF779FF1E
:1007900005467848006D41F6FD71084075490865C9
:1007A000284670BD10B504244FF43020FFF794FFA5
:1007B0000446042C16D16F48006940F004006D49CE
:1007C00008610846006940F0400008614FF430209D
:1007D000FFF782FF04466748006941F6FB71084055
:1007E00064490861042C16D16248006D40F0040091
:1007F000604908650846006D40F0400008654FF408
:100800003020FFF73EFF04465A48006D41F6FB7169
:10081000084058490865204610BD10B504244FF41F
:100820003020FFF759FF0446042C16D151480069C7
:1008300040F004004F4908610846006940F040005C
:1008400008614FF43020FFF747FF0446494800692C
:1008500041F6FB71084047490861204610BD10B5BC
:1008600004244FF43020FFF70CFF0446042C16D16B
:100870004048006D40F004003E4908650846006DA0
:1008800040F0400008654FF43020FFF7FAFE0446C0
:100890003848006D41F6FB7108403649086520462E
:1008A00010BD00B502460423FFF7FEFE034603E039
:1008B000FFF7FAFE0346521E012B01D1002AF7D1A1
:1008C00002B90523184600BD00202A49C96911F064
:1008D000020F01D0012000E00020704730B5A525AF
:1008E0000424FFF7F1FF00B100254FF43020FFF79B
:1008F000D8FF0446042C52D11F481E4988601F4867
:1009000088600846006940F02000086108460069D8
:1009100040F0400008614FF43020FFF7C2FF04466A
:10092000042C33D11348006941F6DF7108401149A6
:1009300008610846006940F010000861124805800F
:10094000E002FFF7AEFF0446052C28D009480069F5
:1009500041F6EF7108400749086120E0656D6C6958
:10096000625C73746D3332663130785F666C6173CC
:10097000682E63000020024023016745AB89EFCD5C
:10098000FFFF0F08FFFF070800F8FF1F052C06D028
:10099000F748006941F6EF710840F54908612046C3
:1009A00030BDF8B504460D46042600200090B4F191
:1009B000006F03D3EF48844200D205E040F2AF213C
:1009C000AFF2680002F046FBEB4884422CD24FF4B1
:1009D0000050FFF781FE0646042E1CD1E448006952
:1009E00040F00100E24908612580F002FFF759FF5D
:1009F0000646042E10D1A01C0090280C00990880F7
:100A0000F002FFF74EFF0646D948006941F6FE7135
:100A10000840D74908617EE0D548006941F6FE717B
:100A20000840D349086176E0D348401C844246D14F
:100A30004FF40050FFF750FE0646042E12D1CC486A
:100A4000006940F00100CA4908612580F002FFF703
:100A500043FE0646C648006941F6FE710840C44997
:100A6000086106E0C248006941F6FE710840C049CD
:100A700008614FF40050FFF704FE0646042E16D11D
:100A8000BB48006D40F00100B9490865A01C00900A
:100A9000280C00990880F002FFF7F3FD0646B448E1
:100AA000006D41F6FE710840B149086533E0B04879
:100AB000006D41F6FE710840AD4908652BE04FF42A
:100AC0000050FFF7DEFD0646042E24D1A848006D35
:100AD00040F00100A64908652580F002FFF7D1FD2E
:100AE0000646042E10D1A01C0090280C0099088006
:100AF000F002FFF7C6FD06469D48006D41F6FE7107
:100B000008409B49086506E09948006D41F6FE7172
:100B10000840974908653046F8BD70B504460D4653
:100B20000426B4F1006F03D39248844200D205E05A
:100B300040F25E31AFF2DC1002F08CFA4FF400505C
:100B4000FFF7AFFE06468C48801C844214D2042E68
:100B500026D18748006940F0010085490861258059
:100B6000F002FFF7B9FD06468148006941F6FE71C3
:100B700008407F49086113E0042E11D17C48006DC4
:100B800040F001007A4908652580F002FFF779FD01
:100B900006467748006D41F6FE71084074490865C5
:100BA000304670BD70B504460E4604257348844235
:100BB00002D0801C844200D105E040F2A531AFF2A2
:100BC000642002F047FA4FF40050FFF76AFE054632
:100BD000042D17D16A48664988606A4888600846CB
:100BE000006940F0100008612680E802FFF759FE16
:100BF0000546052D06D05E48006941F6EF710840B4
:100C00005B490861284670BD2DE9F04704464FF660
:100C1000FF763746B046B146042504B105E040F200
:100C2000D631AFF2C82002F015FAE443E6B2C4F3BD
:100C30000727C4F307484FEA14694FF40050FFF741
:100C400030FE0546042D40D14D48494988604D4845
:100C500088600846006940F010000861FF2E06D049
:100C60004648001D0680E802FFF71BFE0546042DDE
:100C700008D1FF2F06D04148801D0780E802FFF70A
:100C800010FE0546042D0AD1B8F1FF0F07D03B48EE
:100C90000830A0F80080E802FFF703FE0546042DA7
:100CA0000AD1B9F1FF0F07D034480A30A0F80090FC
:100CB000E802FFF7F6FD0546052D06D02C48006931
:100CC00041F6EF7108402A4908612846BDE8F087DF
:100CD00070B5054604240DB1012D00D105E040F2A8
:100CE0001D41AFF2883002F0B5F94FF43020FFF724
:100CF000D8FD0446042C50D121481D498860214864
:100D000088600846006940F02000086108460069D4
:100D100040F0400008614FF43020FFF7C2FD044668
:100D2000042C31D11248006941F6DF7108401049A6
:100D300008610846006940F01000086125B10020F4
:100D40000E49091F088003E0A5200C49091F0880EF
:100D50004FF43020FFF7A5FD0446052C1DD00448B4
:100D6000006941F6EF7108400149086115E0000093
:100D700000200240FFFF0F08FDFF070804F8FF1FD7
:100D800023016745AB89EFCD052C06D0AA48006941
:100D900041F6DF710840A8490861204670BD2DE981
:100DA000F04104460D4616460427012C00D004B934
:100DB00005E040F26341AFF25C4002F04BF9022DD6
:100DC00000D005B905E040F26441AFF2704002F096
:100DD00041F9042E00D006B905E040F26541AFF2BA
:100DE000844002F037F995489349886094488860B8
:100DF0004FF40050FFF755FD0746042F18D18E48D9
:100E0000006940F010008C49086146F0F800284362
:100E100020438C490880F802FFF743FD0746052F61
:100E200006D08548006941F6EF71084082490861A3
:100E30003846BDE8F08170B5044604250CB1012C9C
:100E400000D105E040F29741AFF2F04002F002F924
:100E50007A48794988607A4888604FF40050FFF7F3
:100E600020FD0546042D22D17348006940F0100092
:100E70007149086134B97348008840F0080071492D
:100E8000088006E06F4800884FF6F77108406D490A
:100E900008804FF40050FFF704FD0546052D06D0ED
:100EA0006548006941F6EF710840634908612846CA
:100EB00070BD6148C069800870475F48006A70472C
:100EC00000205D49096811F0200F01D0012000E0E9
:100ED0000020704770B504460D465B48044201D1BE
:100EE00004B105E040F20E51AFF2905002F0B2F8BA
:100EF0000DB1012D00D105E040F20F51AFF2A45029
:100F000002F0A8F814F0004F10D03DB14A48006D2F
:100F100024F0004108434849086513E04648006D45
:100F200024F000418843444908650BE02DB1424854
:100F3000006920434049086104E03F480069A0433C
:100F40003D49086170BD70B504460025012C1DD0D7
:100F5000202C1BD0042C19D0102C17D0012C15D00C
:100F600014D0202C12D0042C10D0102C0ED03748C6
:100F700084420BD035481F30844207D03348C01C10
:100F8000844203D031480F30844200D105E040F262
:100F90005351AFF2386002F05DF8012C08D12648B9
:100FA000C06910F0010F01D0012513E0002511E008
:100FB00014F0004F07D02048C06C204201D001251A
:100FC00008E0002506E01C48C068204201D0012549
:100FD00000E00025284670BD10B504461B48373890
:100FE000044201D104B105E040F2A751AFF2946090
:100FF00002F030F814F0004F02D00F48C46401E052
:101000000D48C46010BD04200B49C96811F0010FE0
:1010100001D001200EE00849C96811F0040F01D089
:10102000022007E00449C96811F0100F01D0032025
:1010300000E00420704700000020024023016745C3
:10104000AB89EFCD02F8FF1FFFEBFF7F01000080AF
:1010500010B50446FC48844211D0FC4884420ED0AE
:10106000FB4884420BD0FB48844208D0FA488442B3
:1010700005D0FA48844202D0F948844200D103E006
:101080006F21F8A001F0E6FFEF48844208D101216A
:10109000042001F040F80021042001F03CF846E073
:1010A000EA48844208D10121082001F034F80021E7
:1010B000082001F030F83AE0E548844208D10121E7
:1010C000102001F028F80021102001F024F82EE073
:1010D000E048844208D10121202001F01CF80021C1
:1010E000202001F018F822E0DB48844208D10121D9
:1010F000402001F010F80021402001F00CF816E02B
:10110000D648844208D10121802001F004F8002152
:10111000802001F000F80AE0D148844207D1012183
:10112000801500F0F8FF0021A01500F0F4FF10BDBD
:1011300010B50121084600F0EEFF0021012000F06B
:10114000EAFF10BD2DE9F05F05460C464FF000099F
:10115000CA4600260027B046B346BB48854211D098
:10116000BA4885420ED0BA4885420BD0B94885426C
:1011700008D0B948854205D0B848854202D0B84861
:10118000854200D103E0B221B6A001F063FFE07810
:10119000A0B1E078042811D0E07828280ED0E078BB
:1011A00048280BD0E078142808D0E078102805D023
:1011B000E0781C2802D0E078182800D103E0B321A1
:1011C000A8A001F047FF002010B9208800B103E07B
:1011D000B421A4A001F03EFFE07800F00F09E07810
:1011E00010F0100F10D0A078012805D0A0780228A8
:1011F00002D0A078032800D103E0BB2199A001F020
:1012000029FFA07840EA0909207838B3D5F8008092
:1012100000261FE0012000FA06F7208800EA070AEE
:10122000BA4516D1B7000F2000FA07FB28EA0B08D1
:1012300009FA07F040EA0808E078282803D10120DD
:10124000B040686105E0E078482802D10120B04054
:101250002861761C082EDDD3C5F800802088FF2881
:101260002BDDD5F80480002623E006F108000121DB
:1012700001FA00F7208800EA070ABA4518D1B7003A
:101280000F2000FA07FB28EA0B0809FA07F040EAEA
:101290000808E078282803D106F108008140696138
:1012A000E078482804D106F1080001218140296135
:1012B000761C082ED9D3C5F80480BDE8F09F4FF600
:1012C000FF710180022181700421C170704770B5E7
:1012D00005460C4600265C48854211D05B48854295
:1012E0000ED05B4885420BD05A48854208D05A48F8
:1012F000854205D05948854202D05948854200D1DF
:1013000004E04FF48F7157A001F0A4FE012C25D00A
:10131000022C23D0042C21D0082C1FD0102C1DD03F
:10132000202C1BD0402C19D0802C17D0B4F5807FF6
:1013300014D0B4F5007F11D0B4F5806F0ED0B4F5A1
:10134000006F0BD0B4F5805F08D0B4F5005F05D016
:10135000B4F5804F02D0B4F5004F00D104E040F264
:101360001F1140A001F076FEA868204201D001269E
:1013700000E00026304670BD10B504463248844275
:1013800011D0324884420ED0314884420BD03148CB
:10139000844208D03048844205D03048844202D08C
:1013A0002F48844200D104E04FF49A712DA001F03F
:1013B00051FEA06880B210BD70B505460C460026EF
:1013C0002148854211D0214885420ED020488542CF
:1013D0000BD02048854208D01F48854205D01F48C1
:1013E000854202D01E48854200D104E04FF4A2712C
:1013F0001CA001F02FFE012C25D0022C23D0042CA0
:1014000021D0082C1FD0102C1DD0202C1BD0402CFC
:1014100019D0802C17D0B4F5807F14D0B4F5007F9C
:1014200011D0B4F5806F0ED0B4F5006F0BD0B4F5C9
:10143000805F08D0B4F5005F05D0B4F5804F02D0CE
:10144000B4F5004F1AD11FE000080140000C014024
:10145000001001400014014000180140001C014030
:1014600000200140656D6C69625C73746D33326697
:101470003130785F6770696F2E63000040F245116C
:10148000AFF2200001F0E6FDE868204201D001261D
:1014900000E00026304670BD10B50446FE48844288
:1014A00011D0FE4884420ED0FD4884420BD0FD4846
:1014B000844208D0FC48844205D0FC48844202D0D3
:1014C000FB48844200D105E04FF4AD71AFF26C00EF
:1014D00001F0C0FDE06880B210BD70B504460D4655
:1014E000ED48844211D0ED4884420ED0EC4884424D
:1014F0000BD0EC48844208D0EB48844205D0EB483E
:10150000844202D0EA48844200D105E040F26911E9
:10151000AFF2B00001F09EFD002008B905B105E072
:101520004FF4B571AFF2C40001F094FD256170BDB8
:1015300070B504460D46D848844211D0D74884423D
:101540000ED0D74884420BD0D648844208D0D64823
:10155000844205D0D548844202D0D548844200D187
:1015600005E040F27911AFF2041001F073FD0020A4
:1015700008B905B105E04FF4BD71AFF2181001F0E4
:1015800069FD656170BD70B505460C461646C248DA
:10159000854211D0C14885420ED0C14885420BD04A
:1015A000C048854208D0C048854205D0BF48854222
:1015B00002D0BF48854200D105E040F28D11AFF264
:1015C0005C1001F047FD012C25D0022C23D0042C07
:1015D00021D0082C1FD0102C1DD0202C1BD0402C2B
:1015E00019D0802C17D0B4F5807F14D0B4F5007FCB
:1015F00011D0B4F5806F0ED0B4F5006F0BD0B4F5F8
:10160000805F08D0B4F5005F05D0B4F5804F02D0FC
:10161000B4F5004F00D105E04FF4C771AFF2BC1034
:1016200001F018FD0EB1012E00D105E040F28F113E
:10163000AFF2D01001F00EFD0EB12C6100E06C6134
:1016400070BD70B504460D469348844211D093484E
:1016500084420ED0924884420BD09248844208D0F3
:101660009148844205D09148844202D090488442F7
:1016700000D105E04FF4D271AFF2182001F0EAFC7E
:10168000E56070BD70B504460D464FF48036824863
:10169000844211D0814884420ED0814884420BD0CC
:1016A0008048844208D08048844205D07F488442E4
:1016B00002D07F48844200D105E040F2B511AFF27C
:1016C0005C2001F0C7FC002008B905B105E04FF42B
:1016D000DB71AFF2702001F0BDFC2E43A661A56165
:1016E000A661A669A66970BD70B505460C460026C0
:1016F0003DB1012D05D0022D03D0032D01D0042DC5
:1017000000D105E04FF4E971AFF2A82001F0A2FC8E
:10171000ECB1012C1BD0022C19D0032C17D0042CB7
:1017200015D0052C13D0062C11D0072C0FD0082C67
:101730000DD0092C0BD00A2C09D00B2C07D00C2C67
:1017400005D00D2C03D00E2C01D00F2C00D105E0BC
:1017500040F2D311AFF2F42001F07CFC554806684A
:101760004FF68070064046EA05162643514806604B
:1017700070BD10B504460CB1012C00D105E04FF44A
:10178000F371AFF2203001F065FC4B48C46110BD2D
:101790002DE9F04704460E460027B8460025A94625
:1017A000012C77D0022C75D0042C73D0082C71D06A
:1017B000A4F5A01010386DD020386BD0A4F5B0106F
:1017C000403867D0803865D03C48844262D03C487D
:1017D00084425FD03B4884425CD03B48844259D02D
:1017E0003A48844256D0B4F5805F53D0B4F5EA1F2E
:1017F00050D0B4F5EB1F4DD0B4F5004F4AD034486B
:10180000844247D0A4F50010801E7CD0801E7AD080
:10181000001F78D0083876D0B4F1201F73D030384C
:1018200071D02C4884426ED02B4884426BD02B4818
:10183000844268D02A48844265D02A48844262D0D3
:10184000B4F5011F5FD0284884425CD0401C84421C
:1018500059D0801C844256D0001D844253D0224867
:101860000F3084424FD020481F3084424BD01E4856
:101870003F30844247D01C487F30844243D01A48CE
:10188000FF3084423FD0194884423CD018488442FB
:1018900039D02FE037E0000000080140000C014083
:1018A000001001400014014000180140001C0140DC
:1018B000002001400000014000002042000118000B
:1018C000000218000003180000081A00000C1A009B
:1018D0000100200000013000000230000004300050
:1018E0000011200000202000010000800002008084
:1018F000000400806348844205D06348844202D0DB
:101900006248844200D105E040F22A21AFF2AC40A7
:1019100001F0A0FB0EB1012E00D105E040F22B2119
:10192000AFF2C04001F096FB04F00040B0F1004F70
:1019300002D15748C56901E055484568C4F30349D9
:10194000A7B204F44010B0F5401F08D125F070652F
:101950004F48406820F070604D49486013E004F43F
:101960008010B0F5801F07D1032000FA09F825EA9E
:10197000080545F0706506E0600D000107FA00F00B
:10198000854345F0706526B1600D010107FA01F04D
:10199000054304F00040B0F1004F02D13C48C5615E
:1019A00001E03B484560BDE8F08770B505460C4650
:1019B00000265DB1012D09D0022D07D0032D05D0E1
:1019C000042D03D0052D01D0062D00D105E040F2F5
:1019D0006521AFF2705001F03DFBECB1012C1BD042
:1019E000022C19D0032C17D0042C15D0052C13D0A1
:1019F000062C11D0072C0FD0082C0DD0092C0BD0A1
:101A00000A2C09D00B2C07D00C2C05D00D2C03D0A0
:101A10000E2C01D00F2C00D105E040F26621AFF270
:101A2000BC5001F017FBA007010F0F2000FA01F6D0
:101A300017480830A11050F82100B043144908316C
:101A4000A21041F822000846A11050F82100A10779
:101A5000090F05FA01F108430D490831A21041F8B8
:101A6000220070BD10B504460CB1012C00D105E078
:101A70004FF41E71AFF2146001F0ECFA05480460F7
:101A800010BD0000000800800010008000200080D1
:101A900000000140DC002042FE48006840F00100E8
:101AA000FC49086008464068FB490840F94948601D
:101AB00008460068F9490840F64908600846006889
:101AC00020F4802008600846406820F4FE0048604A
:101AD0004FF41F008860704710B504462CB1B4F570
:101AE000803F02D0B4F5802F00D104E040F2111104
:101AF000EBA001F0AFFAE748006820F48030E54938
:101B000008600846006820F480200860B4F5803F33
:101B100003D0B4F5802F0ED106E0DE48006840F413
:101B20008030DC49086007E0DA48006840F4A02013
:101B3000D849086000E000BF00BF10BD2DE9F041AA
:101B40000446002500260027212C13D0312C11D06B
:101B5000392C0FD0412C0DD0612C0BD07A2C09D010
:101B60007B2C07D07C2C05D07D2C03D07E2C01D083
:101B70007F2C00D104E040F23451C9A001F06AFA90
:101B80006511012D02D1C348066806E0022D02D17D
:101B9000C048066A01E0BF48466A04F01F050120FC
:101BA000A840304201D0012700E000273846BDE8B8
:101BB000F08138B5002000900024002500BF3120BE
:101BC000FFF7BCFF05460098401C00900098B0F558
:101BD000A06F01D0002DF2D03120FFF7AFFF08B188
:101BE000012400E00024204638BD70B504460025DD
:101BF0001F2C00DC04E04FF4A971A9A001F02AFA1F
:101C0000A448056825F0F80545EAC405056070BDDF
:101C100010B504460CB1012C00D104E040F265116E
:101C20009FA001F017FAA448046010BD70B50546E6
:101C30000C4600262DB1B5F5803F02D0B5F5403FEA
:101C400000D104E040F27F1195A001F003FA4CB3FB
:101C5000B4F5802F26D0B4F5002F23D0B4F5402F53
:101C600020D0B4F5801F1DD0B4F5A01F1AD0B4F554
:101C7000C01F17D0B4F5E01F14D0B4F5001F11D069
:101C8000B4F5101F0ED0B4F5201F0BD0B4F5301FE3
:101C900008D0B4F5401F05D0B4F5501F02D0B4F5FC
:101CA000601F00D104E04FF4C0717DA001F0D2F9B3
:101CB0007848466826F47C1645EA040006437548D1
:101CC000466070BD10B504460CB1012C00D104E093
:101CD0004FF4CA7172A001F0BDF97748046610BDD7
:101CE00070B5044600251CB1012C01D0022C00D196
:101CF00004E04FF40E716AA001F0ACF96548456844
:101D000025F003052543456070BD6248406800F03A
:101D10000C00704770B5044600257CB1802C0DD0B6
:101D2000902C0BD0A02C09D0B02C07D0C02C05D003
:101D3000D02C03D0E02C01D0F02C00D104E04FF4E3
:101D4000197157A001F086F95248456825F0F00551
:101D50002543456070BD70B5044600255CB1B4F5FF
:101D6000806F08D0B4F5A06F05D0B4F5C06F02D075
:101D7000B4F5E06F00D104E040F27E2148A001F00C
:101D800069F94448456825F4E0652543456070BD20
:101D900070B5044600255CB1B4F5806F08D0B4F589
:101DA000A06F05D0B4F5C06F02D0B4F5E06F00D1DC
:101DB00004E04FF426713AA001F04CF9354845682B
:101DC00025F4605545EAC405456070BD70B504460C
:101DD0000D4614F0E00F01D104B104E040F2BF2140
:101DE0002FA001F037F90DB1012D00D104E04FF41F
:101DF00030712BA001F02EF92DB12648407A2043F6
:101E00002449487204E02348407AA043214948729B
:101E100070BD10B504460CB1012C00D104E040F2B5
:101E2000DB211FA001F016F92448046010BD70B535
:101E30000446002544B1B4F5804F05D0B4F5004FF9
:101E400002D0B4F5404F00D104E040F2023114A0BA
:101E500001F000F90F48456825F4404525434560E9
:101E600070BD10B504461CB1012C01D0042C00D16A
:101E700004E04FF450710AA001F0ECF80020104982
:101E80000870044981F82000012C1BD0042C21D1BA
:101E90001CE00000001002400000FFF8FFFFF6FE0B
:101EA000656D6C69625C73746D3332663130785F76
:101EB0007263632E6300000000004242D800424279
:101EC000201002400120F449087004E00520F24986
:101ED000087000E000BF00BF10BD10B504460CB193
:101EE000012C00D105E040F26131AFF24C0001F06D
:101EF000B1F8EA48046010BD10B50446B4F5807F1F
:101F000005D0B4F5007F02D0B4F5407F00D105E0E4
:101F100040F27231AFF2780001F09CF8DE482038D0
:101F2000006A2043DC492039086210BD10B5044620
:101F30000CB1012C00D105E04FF46071AFF2A000AC
:101F400001F088F8D5484438046010BD30B5002150
:101F5000002200240023D04D203D6D6805F00C01C7
:101F600021B1042905D0082926D105E0CC4D056012
:101F700025E0CB4D056022E0C74D203D6D6805F49E
:101F80007012C54D203D6D6805F48034022505EBC7
:101F900092421CB9C34D554305600CE0BE4D203D37
:101FA0006D6815F4003F03D0BE4D5543056002E057
:101FB000BB4D5543056002E0B94D056000BF00BF51
:101FC000B54D203D6D6805F0F0010909B64D6B5C1B
:101FD0000568DD404560B04D203D6D6805F4E06169
:101FE000090AB14D6B5C4568DD408560AA4D203D16
:101FF0006D6805F46051C90AAB4D6B5C4568DD4006
:10200000C560A54D203D6D6805F44041890BA74D85
:102010006B5CC568B5FBF3F5056130BD70B5044672
:102020000D4640F2575034EA000001D104B105E0FA
:1020300040F22B41AFF2981001F00CF80DB1012DD8
:1020400000D105E040F22C41AFF2AC1001F002F8F3
:102050003DB191482038406920438F49203948617B
:1020600006E08D4820384069A0438B4920394861FB
:1020700070BD70B504460D468D48044201D104B1CF
:1020800005E040F24A41AFF2E81000F0E3FF0DB185
:10209000012D00D105E040F24B41AFF2FC1000F001
:1020A000D9FF3DB17C482038806920437A492039E6
:1020B000886106E0784820388069A0437649203955
:1020C000886170BD70B504460D467A48044201D15E
:1020D00004B105E040F26941AFF23C2000F0BAFFE4
:1020E0000DB1012D00D105E040F26A41AFF2502060
:1020F00000F0B0FF3DB168482038C0692043664910
:102100002039C86106E064482038C069A0436249AC
:102110002039C86170BD70B504460D46644804425C
:1021200001D104B105E040F2A441AFF28C2000F0EF
:1021300091FF0DB1012D00D105E040F2A541AFF2B4
:10214000A02000F087FF3DB153482038C0682043ED
:1021500051492039C86006E04F482038C068A04384
:102160004D492039C86070BD70B504460D465148D0
:10217000044201D104B105E040F2C341AFF2E020D6
:1021800000F068FF0DB1012D00D105E040F2C4411F
:10219000AFF2F42000F05EFF3DB13F482038006907
:1021A00020433D492039086106E03B48203800695A
:1021B000A04339492039086170BD10B504460CB1FF
:1021C000012C00D105E04FF49B61AFF22C3000F000
:1021D00041FF32484038046010BD10B504460CB1D0
:1021E000012C00D105E040F2E541AFF24C3000F0A7
:1021F00031FF3148C46410BD10B504463CB1052C14
:1022000005D0042C03D0062C01D0072C00D105E00A
:1022100040F20551AFF2783000F01CFF1E48203824
:10222000C47110BD1C482038406A40F080701A49C3
:1022300020394862704770B504460025012C09D04A
:10224000022C07D0042C05D0082C03D0102C01D070
:10225000802C00D105E040F27E51AFF2BC3000F09E
:10226000F9FE0D4820388068204201D0012500E0A9
:102270000025284670BD10B5044614F0600F01D14A
:1022800004B105E040F2AB51AFF2EC3000F0E2FEF9
:1022900001482038847210BD201002408004424260
:1022A00000127A0000093D001400002024000020E4
:1022B0000200C0FF003601810000424210B5044612
:1022C000FE4884420BD0FE48844208D0FD48844238
:1022D00005D0FD48844202D0FC48844200D103E08E
:1022E0008521FBA000F0B6FEF448844209D101210B
:1022F0008803FFF710FF00214FF48040FFF70BFF2A
:1023000032E0EF48844209D101214804FFF72CFF55
:1023100000214FF40030FFF727FF25E0E948844211
:1023200009D101218804FFF71FFF00214FF480200D
:10233000FFF71AFF18E0E448844209D10121C804DC
:10234000FFF712FF00214FF40020FFF70DFF0BE015
:10235000DE48844208D101210805FFF705FF00216E
:102360004FF48010FFF700FF10BD2DE9F04786B055
:1023700005460C460026B24600BFB1460027CF48AE
:1023800085420BD0CE48854208D0CE48854205D044
:10239000CD48854202D0CD48854200D103E0B82126
:1023A000CBA000F057FE206820B1CF4920688842BA
:1023B00000D203E0B921C6A000F04CFEA08818B1FD
:1023C000A088B0F5805F00D103E0BA21C0A000F082
:1023D00041FEE08858B1E088B0F5805F07D0E08822
:1023E000B0F5005F03D0E088B0F5405F00D103E0B6
:1023F000BB21B7A000F02EFE208938B12089B0F5AE
:10240000806F03D02089B0F5C06F00D103E0BC21FC
:10241000AFA000F01FFE60894FF6F371084202D1B1
:10242000608900B103E0BD21A9A000F013FEA089DE
:1024300058B1A089B0F5807F07D0A089B0F5007FA2
:1024400003D0A089B0F5407F00D103E0BE21A0A059
:1024500000F000FEA08968B19848854205D09848F0
:10246000854202D09748854200D103E0C22198A05E
:1024700000F0F0FD2F462E8A4CF6FF700640E088F3
:1024800006432E82AE894EF6F3100640A0882189BD
:102490000843618908430643AE81AE8A4FF6FF4088
:1024A0000640A0890643AE8201A8FFF74FFD83488E
:1024B000874202D1DDF810A001E0DDF80CA0A88968
:1024C00010F4004F08D00AEBCA0000EB0A10216894
:1024D0004900B0FBF1F807E00AEBCA0000EB0A1074
:1024E00021688900B0FBF1F86420B8FBF0F0060128
:1024F0003009642101FB1089A88910F4004F08D02D
:10250000322000EBC900B0FBF1F000F007000643F9
:1025100008E0322000EB09106421B0FBF1F000F07C
:102520000F0006432E8106B0BDE8F0874FF4165128
:10253000016000218180C18001810C214181002145
:102540008181704770B505460C4600265B48854280
:1025500005D05B48854202D05A48854200D104E04C
:102560004FF499715AA000F075FD208818B12088A9
:10257000B0F5006F00D104E040F2331154A000F038
:1025800069FD608818B16088B0F5806F00D104E003
:102590004FF49A714EA000F05DFDA08818B1A0889C
:1025A000B0F5007F00D104E040F2351148A000F002
:1025B00051FDE08818B1E088B0F5807F00D104E0DB
:1025C0004FF49B7142A000F045FD2E8A4FF2FF00B0
:1025D0000640208861880843A1880843E1880843B1
:1025E00006432E8270BD0021018041808180C18020
:1025F000704770B504460D46304884420BD03048D1
:10260000844208D02F48844205D02F48844202D00B
:102610002E48844200D104E04FF4B1712CA000F0A8
:1026200019FD0DB1012D00D104E040F2631128A085
:1026300000F010FD25B1A08940F40050A08104E015
:10264000A0894DF6FF710840A08170BD2DE9F047CB
:1026500005460C4617464FF00008C246C146002604
:10266000164885420BD01648854208D01548854249
:1026700005D01548854202D01448854200D104E0B7
:1026800040F2891112A000F0E5FC282C31D0A4F50D
:10269000E06027382DD0A4F5C060263829D0A4F5F5
:1026A000A060253825D0A4F58060243821D0A4F579
:1026B000006046381DD0B0F5927017E00038014038
:1026C0000044004000480040004C004000500040E2
:1026D000656D6C69625C73746D3332663130785F3E
:1026E00075736172742E630021AA440001D0602CBE
:1026F00000D105E04FF4C571AFF22C0000F0AAFC48
:102700000FB1012F00D105E040F28B11AFF2400074
:1027100000F0A0FCA4F510606A380FD1F94885429A
:1027200005D0F948854202D0F848854200D105E03D
:1027300040F28F11AFF2680000F08CFC2E46C4F31B
:10274000421804F01F0A012000FA0AF9B8F1010F3B
:1027500001D10C3605E0B8F1020F01D1103600E0CE
:10276000143627B1306840EA0900306003E0306871
:1027700020EA09003060BDE8F08770B504460D46D8
:102780001646E04884420BD0DF48844208D0DF4838
:10279000844205D0DE48844202D0DE48844200D123
:1027A00005E040F2C311AFF2D80000F053FC4FF641
:1027B0003F70054201D105B105E04FF4E271AFF27F
:1027C000F00000F047FC0EB1012E00D105E040F210
:1027D000C511AFF2041000F03DFC1EB1A08A2843E1
:1027E000A08202E0A08AA843A08270BD70B5044612
:1027F0000D46C44884420BD0C348844208D0C34825
:10280000844205D0C248844202D0C248844200D1EA
:1028100005E040F2DF11AFF2481000F01BFC0F2D75
:1028200000DC05E04FF4F071AFF25C1000F012FC38
:10283000208A4FF6F07108402082208A28432082A7
:1028400070BD70B504460D46AE4884420BD0AE480C
:10285000844208D0AD48844205D0AD48844202D0BD
:10286000AC48844200D105E04FF4FB71AFF2A010F8
:1028700000F0F0FB15B1B5F5006F00D105E040F2B6
:10288000F711AFF2B41000F0E5FBA0894FF2FF7131
:102890000840A081A0892843A08170BD70B504467E
:1028A0000D46984884420BD09748844208D09748F8
:1028B000844205D09648844202D09648844200D192
:1028C00005E040F20921AFF2F81000F0C3FB0DB1B2
:1028D000012D00D105E040F20A21AFF20C2000F0FA
:1028E000B9FB25B1A08940F00200A08104E0A089D5
:1028F0004FF6FD710840A08170BD70B504460D46CD
:10290000804884420BD08048844208D07F4884426B
:1029100005D07F48844202D07E48844200D105E041
:1029200040F22621AFF2582000F094FB0DB1202D8B
:1029300000D105E040F22721AFF26C2000F08AFBC5
:10294000208A4FF6DF7108402082208A28432082A7
:1029500070BD70B504460D466A4884420BD06A4883
:10296000844208D06948844205D06948844202D034
:102970006848844200D105E040F23921AFF2B0202E
:1029800000F068FB0DB1012D00D105E040F23A21C5
:10299000AFF2C42000F05EFB25B1208A40F48040F5
:1029A000208204E0208A4BF6FF710840208270BD2F
:1029B00070B504460D46534884420BD052488442B9
:1029C00008D05248844205D05148844202D0514830
:1029D000844200D105E040F25321AFF20C3000F008
:1029E00039FBB5F5007F00DA05E04FF41571AFF261
:1029F000203000F02FFBC5F30800A08070BD10B59B
:102A00000446404884420BD03F48844208D03F48A7
:102A1000844205D03E48844202D03E48844200D1E0
:102A200005E04FF41971AFF2583000F013FBA088A5
:102A3000C0F3080010BD10B50446324884420BD0E4
:102A40003148844208D03148844205D0304884421D
:102A500002D03048844200D105E04FF41D71AFF23E
:102A6000903000F0F7FAA08940F00100A08110BD7D
:102A700070B504460D462348844205D0224884425E
:102A800002D02248844200D105E04FF42171AFF218
:102A9000C03000F0DFFA208BC0B22083208B40EAE8
:102AA0000520208370BD70B504460D46154884424C
:102AB0000BD01548844208D01448844205D01448ED
:102AC000844202D01348844200D105E04FF42671BD
:102AD000AFF2044000F0BEFA208B00F47F40208368
:102AE000208B2843208370BD70B504460D460548F1
:102AF000844205D00448844202D0044884420BD169
:102B000010E0000000380140004400400048004050
:102B1000004C00400050004040F2AB21AFF250406A
:102B200000F098FA0DB1012D00D105E04FF42B71A2
:102B3000AFF2644000F08EFA25B1A08A40F0200088
:102B4000A08204E0A08A4FF6DF710840A08270BD29
:102B500070B504460D46F848844205D0F7488442D3
:102B600002D0F748844200D105E04FF43171AFF252
:102B7000A04000F06FFA0DB1012D00D105E040F248
:102B8000C521AFF2B44000F065FA25B1A08A40F04B
:102B90001000A08204E0A08A4FF6EF710840A082E6
:102BA00070BD70B504460D46E34884420BD0E3483F
:102BB000844208D0E248844205D0E248844202D0F0
:102BC000E148844200D105E040F2DE21AFF200503E
:102BD00000F040FA0DB1012D00D105E040F2DF21F7
:102BE000AFF2145000F036FA25B1A08A40F0080088
:102BF000A08204E0A08A4FF6F7710840A08270BD61
:102C000070B504460D46CC4884420BD0CB48844274
:102C100008D0CB48844205D0CA48844202D0CA4872
:102C2000844200D105E040F2FD21AFF25C5000F09B
:102C300011FA0DB1012D00D105E040F2FE21AFF2F5
:102C4000705000F007FA25B1A08940F40040A0813F
:102C500003E0A089C0F30E00A08170BD70B50446EA
:102C60000D46B54884420BD0B448844208D0B448DD
:102C7000844205D0B348844202D0B348844200D194
:102C800005E04FF44671AFF2B85000F0E3F90DB132
:102C9000012D00D105E040F21931AFF2CC5000F027
:102CA000D9F925B1A08A40F40060A08204E0A08A8E
:102CB0004FF2FF710840A08270BD70B504460D460A
:102CC0009D4884420BD09D48844208D09C48844251
:102CD00005D09C48844202D09B48844200D105E044
:102CE00040F23531AFF2186000F0B4F9042D00D095
:102CF00005B905E040F23631AFF22C6000F0AAF9D8
:102D0000A08A4FF6FB710840A082A08A2843A082C7
:102D100070BD70B504460D46874884420BD0874885
:102D2000844208D08648844205D08648844202D036
:102D30008548844200D105E04FF45271AFF27060D3
:102D400000F088F90DB1012D00D105E040F24931C4
:102D5000AFF2846000F07EF925B1A08A40F0020055
:102D6000A08204E0A08A4FF6FD710840A08270BDE9
:102D700070B505460C4600266F4885420BD06F485B
:102D8000854208D06E48854205D06E48854202D003
:102D90006D48854200D105E040F26E31AFF2D0605F
:102DA00000F058F9012C13D0802C11D0402C0FD0FA
:102DB000202C0DD0102C0BD0B4F5807F08D0B4F5AA
:102DC000007F05D0082C03D0042C01D0022C00D1A8
:102DD00005E040F26F31AFF2087000F03BF9B4F556
:102DE000007F0FD15448854205D05448854202D017
:102DF0005348854200D105E040F27331AFF23070A4
:102E000000F028F92888204201D0012600E00026A1
:102E1000304670BD70B504460D46474884420BD01D
:102E20004648844208D04648844205D045488442FA
:102E300002D04548844200D105E040F29E31AFF215
:102E4000707000F007F94FF69F40054201D105B1BF
:102E500005E040F29F31AFF2887000F0FBF805F416
:102E60000070B0F5007F0FD13348844205D033485D
:102E7000844202D03248844200D105E040F2A331BE
:102E8000AFF2B47000F0E6F8E843208070BD2DE9A1
:102E9000F04705460C4600270026B046B1462648B6
:102EA00085420BD02548854208D02548854205D06B
:102EB0002448854202D02448854200D105E040F2F2
:102EC000C131AFF2F47000F0C5F8282C1FD0A4F582
:102ED000E06027381BD0A4F5C060263817D0A4F5D1
:102EE000A060253813D0A4F5806024380FD0A4F555
:102EF000006046380BD0B0F5927008D0B4F5587F1A
:102F000005D0B4F5187F02D0B4F5B07F00D105E04C
:102F100040F2C231AFF6480000F09CF8A4F5106012
:102F20006A3819D10448854205D00448854202D048
:102F3000034885420AD10FE00038014000440040B8
:102F400000480040004C00400050004040F2C631B4
:102F5000AFF6840000F07EF8C4F3421804F01F06B8
:102F6000012000FA06F6B8F1010F02D1A889064047
:102F700007E0B8F1020F02D1288A064001E0A88AD2
:102F800006402712012000FA07F7288807401EB1E3
:102F900017B14FF0010901E04FF000094846BDE8C4
:102FA000F0872DE9F04104460D460026002724480D
:102FB00084420BD02348844208D02348844205D061
:102FC0002248844202D02248844200D105E040F2E7
:102FD0000A41AFF6041000F03DF8A5F5C0602638B0
:102FE0000AD0A5F5A060253806D0A5F500604638C2
:102FF00002D0B0F5927000D105E040F20B41AFF67F
:10300000301000F027F8A5F510606A380FD10C4891
:10301000844205D00B48844202D00B48844200D140
:1030200005E040F20F41AFF6581000F013F82E12F1
:103030000120B04087B2F8432080BDE8F081000055
:10304000003801400044004000480040004C00406F
:10305000005000407047F0B5FE4A002500240023D0
:1030600020E0B1FBF2F6303606F0FF0C2E466D1C68
:1030700000F806C0B1FBF2F602FB16110A26B2FBFD
:10308000F6F26E1E865D302E01D1012600E000268C
:103090000CB9012700E000273E4201D0002500E0E6
:1030A000641C5B1C0A2BDCD3F0BD70B502460C46D9
:1030B0000021002500231078302843D1507878284B
:1030C00002D0507858283DD1907808B9002070BDC2
:1030D000022130E0505C10B9236001252DE0505CE6
:1030E000412802DB505C46280BDD505C612802DB86
:1030F000505C662805DD505C302819DB505C3928AF
:1031000016DC505C302805DB505C392802DC505C52
:1031100030380AE0505C412805DB505C462802DC70
:10312000505C373801E0505C573800EB031301E086
:10313000002502E0491C0B29CCD300BF0B2934D356
:10314000002532E000212AE0505C10B923600125FF
:1031500027E0505C6B2802D0505C4B2804D119B199
:103160009B02236001251CE0505C6D2802D0505C5E
:103170004D2804D119B11B052360012511E0505CD5
:10318000302809DB505C392806DC505C303803EB12
:10319000830600EB460301E0002502E0491C0B29F1
:1031A000D2D300BF0B2900D3002528468FE710B5E6
:1031B00004462146A848FFF7FBFB00BF8021A64834
:1031C000FFF7D6FD0028F9D010BD10B5044603E086
:1031D0002078FFF7ECFF641C20780028F8D110BDA0
:1031E00010B5044620219C48FFF7C2FD28B19A483B
:1031F000001D00882070012010BD0020FCE738B5BC
:10320000054600240020009000BF6846FFF7E8FF55
:103210009DF800000D2800D123E09DF8000008284B
:1032200005D11CB18DA0FFF7D0FF641E18E0802CE3
:1032300004D38BA0FFF7C9FF002411E09DF8000024
:1032400020280CDB9DF800007E2808DC9DF800207B
:103250002046641C2A549DF80000FFF7A8FF00BF19
:10326000D3E700BF86A0FFF7B0FF0020285538BD88
:103270001FB5044623E06846FFF7C1FF9DF8000034
:1032800000B91CE09DF80000612803D09DF8000003
:10329000412808D19DF8010028B97AA0FFF795FFD1
:1032A000002004B010BD21466846FFF7FEFE18B9A5
:1032B00079A0FFF78AFF01E00120F2E700BFDAE71B
:1032C00070B505460C460026601C00D1012605E0BD
:1032D0002846FFF785FF012800D170BD201EA4F10C
:1032E0000104F5DC002EF3D10020F6E701B5002043
:1032F00000994A05520D03D0012202EBD12000E0D3
:10330000C80A08BD2DE9F047002400250126022740
:103310004FF004084FF00109FDF7CFFD0546644862
:103320000068284062490968884248D0FDF7C1FD1D
:1033300004465F48006828435D490860FDF7CEFAFF
:1033400081465B480068401C05D059480068C0436E
:10335000FDF75AFC814604F00700072811D014F04D
:10336000010F00D1002614F0020F00D1002714F045
:10337000040F01D14FF00008424639463046FDF7B0
:103380000EFDB9F1040F16D14AA0FFF71EFF5148F8
:10339000FFF71BFF00BFBFF34F8F4F48006800F4DB
:1033A000E0604E490843001D4B490860BFF34F8F52
:1033B00000BF00BFFEE74AA0FFF707FF02E053A0EF
:1033C000FFF703FFBDE8F08708B500200090002458
:1033D00057480068A0F10060000B56490860084695
:1033E00000683E2808D20846017801208840401E27
:1033F000C0432F49086003E04FF000402C490860AB
:10340000FDF75BFD2A490968084029490968884297
:1034100003D001204849086002E0002046490860C6
:103420002C484C30FFF7D1FE2A489830FFF7CDFEEC
:103430002848E430FFF7C9FE4048FFF7C6FE3F4882
:103440004C38FFF7C2FE3D484C30FFF7BEFE214826
:103450004C3075E000CA9A3B003801400820080053
:10346000436F6D6D616E6420737472696E67207353
:10347000697A65206F766572666C6F770D0A000059
:103480000A0D0000557365722043616E63656C6CB4
:103490006564200D0A0000004572726F722C20498D
:1034A0006E70757420616761696E3A200D0A0000C4
:1034B0002C00002057726974652050726F74656328
:1034C00074696F6E2064697361626C65642E2E2E60
:1034D0000D0A0000F84400080CED00E00000FA05B9
:1034E0004572726F723A20466C6173682077726918
:1034F000746520756E70726F74656374696F6E2089
:103500006661696C65642E2E2E0D0A00466C61732F
:1035100068206D656D6F7279206E6F7420777269A7
:1035200074652070726F7465637465640D0A0000C1
:103530003C00002028000020300000202846000821
:10354000FFF743FE4CA0FFF740FE94E04C4968466D
:10355000FFF7B6FE9DF800001D2818D11E24204656
:10356000FFF725FE00F096F90028EEDD454840689B
:1035700045490860084600684449086041490868B0
:1035800080F3088800BF41480068804773E09DF8D9
:103590000000702858D156E03DA0FFF716FE4CA061
:1035A000FFF713FE5AA0FFF710FE69A0FFF70DFE0C
:1035B0007748006810B177A0FFF707FE85A0FFF7F6
:1035C00004FE4FF0FF316846FFF77AFE18B19DF810
:1035D0000000FFF7ECFD9DF80000312802D100F05B
:1035E00059F930E09DF80000322802D100F052FA7B
:1035F00029E09DF80000332810D122484068224974
:10360000086008460068214908601E49086880F380
:10361000088800BF1D480068804714E09DF800003E
:10362000342806D15A480068012802D1FFF76AFE03
:1036300009E05748006818B976A0FFF7C6FD02E018
:1036400083A0FFF7C2FDA7E70E4800689049084035
:10365000B0F1005F0FD10B4840680B490860084685
:1036600000680A4908600749086880F3088800BFB5
:1036700006480068804769E70D0A0D0A000000004F
:10368000E0930400006000083800002034000020AF
:103690000D0A3D3D3D3D3D3D3D3D3D3D3D3D3D3DBD
:1036A0003D3D3D3D204D61696E204D656E75203D6F
:1036B0003D3D3D3D3D3D3D3D3D3D3D3D3D3D3D3D3A
:1036C0003D3D3D3D3D3D3D3D3D3D3D0D0A0A00003A
:1036D0002020446F776E6C6F616420496D6167656F
:1036E00020546F207468652053544D333246313076
:1036F0007820496E7465726E616C20466C617368E7
:10370000202D2D2D2D2D2D2D20310D0A0A000000EC
:10371000202055706C6F616420496D61676520469B
:10372000726F6D207468652053544D3332463130CA
:103730007820496E7465726E616C20466C617368A6
:10374000202D2D2D2D2D2D2D20320D0A0A000000AB
:1037500020204578656375746520546865204E6542
:10376000772050726F6772616D202D2D2D2D2D2DBC
:103770002D2D2D2D2D2D2D2D2D2D2D2D2D2D2D2D79
:103780002D2D2D2D2D2D2D2D20330D0A0A0000005D
:1037900030000020202044697361626C65207468E9
:1037A000652077726974652070726F7465637469DF
:1037B0006F6E202D2D2D2D2D2D2D2D2D2D2D2D2DC3
:1037C0002D2D2D2D2D2D2D2D2D2D2D2D20340D0A72
:1037D0000A0000003D3D3D3D3D3D3D3D3D3D3D3D03
:1037E0003D3D3D3D3D3D3D3D3D3D3D3D3D3D3D3D09
:1037F0003D3D3D3D3D3D3D3D3D3D3D3D3D3D3D3DF9
:103800003D3D3D3D3D3D3D3D3D3D3D3D3D3D0D0A4B
:103810000A000000496E76616C6964204E756D6225
:1038200065722021203D3D3E20546865206E756DF7
:103830006265722073686F756C64206265206569CB
:103840007468657220312C2032206F7220330D0095
:10385000496E76616C6964204E756D6265722021D7
:10386000203D3D3E20546865206E756D6265722076
:1038700073686F756C642062652065697468657231
:1038800020312C20322C2033206F7220340D000088
:103890000000FE2F3EB51EA207CA8DE807000024D7
:1038A0001E4800F045FA0446002C16DD1C48FFF7C0
:1038B0008CFC1C48FFF789FC21466846FFF7CBFBD0
:1038C00019A0FFF782FC6846FFF77FFC19A0FFF7FD
:1038D0007CFC1BA0FFF779FC17E01F48FCF70FFFEB
:1038E000601C03D11DA0FFF770FC0EE0A01C03D1EB
:1038F0002AA0FFF76AFC08E0E01C03D12EA0FFF726
:1039000064FC02E032A0FFF760FC20463EBD0000F0
:1039100020202020202020202020000054000020F3
:10392000C0460008540400200A0D2053697A653A05
:10393000200000002042797465730D0A0000000029
:103940002D2D2D2D2D2D2D2D2D2D2D2D2D2D2D2DA7
:103950002D2D2D0A00000000006000080A0A0D54F9
:10396000686520696D6167652073697A6520697390
:1039700020686967686572207468616E2074686584
:1039800020616C6C6F776564207370616365206D76
:10399000656D6F7279210A0D000000000A0A0D564C
:1039A0006572696669636174696F6E206661696CCE
:1039B0006564210A0D0000000D0A0A41626F7274ED
:1039C000656420627920757365722E0A0D0000000F
:1039D0000A0D4661696C656420746F2072656365C9
:1039E000697665207468652066696C65210A0D003A
:1039F000FCF7FFFD00F004F9FFF7E6FC00BFFEE76F
:103A00000948804709480047FEE7FEE7FEE7FEE772
:103A1000FEE7FEE7FEE7FEE7FEE7FEE704480549AE
:103A2000054A064B70470000A90200083101000852
:103A3000B8050020B80B0020B8070020B807002008
:103A400010B540F225511248FFF721FA78B110481D
:103A5000FEF7D5FF00F07F0421460D48FEF7A8FFD2
:103A600000BF80210A48FFF783F90028F9D010BD74
:103A700070477047704700BFFEE700BFFEE700BF1A
:103A8000FEE700BFFEE770477047704770470000D1
:103A90000038014038B5002410A0FFF796FB611EE6
:103AA0006846FFF70DFC002813D09DF8000043285E
:103AB0000FD14FF47A2217A11C4800F023FB0446D3
:103AC0001CB11BA0FFF781FB06E024A0FFF77DFBE4
:103AD00002E02BA0FFF779FB38BD00000A0A0D5366
:103AE000656C656374205265636569766520466917
:103AF0006C65202E2E2E2028707265737320616EE7
:103B000079206B657920746F2061626F7274290A65
:103B10000D00000055706C6F61646564466C6173E4
:103B200068496D6167652E62696E0000006000087B
:103B30000A0D4572726F72204F636375726564205F
:103B40007768696C65205472616E736D697474690D
:103B50006E672046696C650A0D0000000A0D466913
:103B60006C6520547261736D69747465642053755B
:103B7000636365737366756C6C79200A0D000000D1
:103B80000D0A0A41626F7274656420627920757350
:103B900065722E0A0D00000008B525208DF8000082
:103BA00001208DF8010000208DF8020001208DF821
:103BB00003006846FCF713FC08BD08B50121052089
:103BC000FEF757FA01218803FEF753FA4FF400700D
:103BD000ADF8000003208DF8020018208DF80300D6
:103BE00069461648FDF7AEFA4FF48060ADF8000064
:103BF00004208DF8030069461048FDF7A3FA08BDBC
:103C00001FB5FFF7C9FFFFF7D8FF4FF46120009001
:103C10000020ADF80400ADF80600ADF80800ADF8DE
:103C20000C000C20ADF80A0069460548FEF79DFB24
:103C300001210348FEF7DDFC1FBD00000008014024
:103C40000038014070B505460C4606E02846FFF7EF
:103C5000C7FA012801D1002070BD2000A4F10104A1
:103C6000F4D1401EF8E710B504462046FFF79FFA4E
:103C7000002010BD2DE9F84304460D469046002073
:103C8000286041466846FFF7DDFF18B14FF0FF306E
:103C9000BDE8F8839DF80000182813D006DC012841
:103CA00009D0022809D0042820D109E041281AD0DF
:103CB00061281BD118E080271BE04FF4806718E0D3
:103CC0000020E5E741466846FFF7BCFF40B99DF894
:103CD0000000182804D14FF0FF3028600020D7E7FB
:103CE0004FF0FF30D4E700BF0120D1E74FF0FF30A5
:103CF000CEE700BF9DF800002070012609E0A01962
:103D00004146FFF79FFF10B14FF0FF30C0E7701C36
:103D100086B2781D8642F2DB6178A07880F0FF00E1
:103D2000814202D04FF0FF30B2E72F600020AFE7B2
:103D30002DE9F04FADF22C4D064600200190F748DA
:103D4000F74908604FF0000B4FF0000A0020029086
:103D500000BF002700200390B04600BF4FF4801240
:103D600004A909A8FFF786FF10B101287ED1D0E091
:103D70004FF0000A0498B0F1FF3F01D070B907E09E
:103D80000620FFF770FF00200DF22C4DBDE8F08FEC
:103D90000620FFF768FF01200390B8E09DF825009A
:103DA000F9B2884203D01520FFF75DFFAFE0002F86
:103DB0006ED19DF82700002863D000250DF127045F
:103DC00005E014F8012B28466D1CD6490A542078CA
:103DD00008B1FF2DF5DD002228466D1CD1490A549B
:103DE0000025641C05E014F8012B28466D1C05A96C
:103DF0000A542078202801D0102DF4DB0022284618
:103E00006D1C05A90A5401A905A8FFF74EF90198F0
:103E1000B0F5801F08DB1820FFF725FF1820FFF7FB
:103E200022FF4FF0FF30AFE70198FFF75FFABE497E
:103E300008600020BD49086010E0B9490968BC4A23
:103E40001288BA4B1B6802FB0310FCF758FCB949F7
:103E50000870B6480068401CB4490860B348006860
:103E6000B1490968884205D2B24800E05AE00078BA
:103E70000428E2D00620FFF7F6FE4320FFF7F3FE0A
:103E800042E00620FFF7EFFE0120039083463EE06C
:103E90000DF127014046049A00F07CFAA64806601E
:103EA0004FF0000923E0A448006801689C480068BE
:103EB000FCF777FD9A48006800689F49096809681F
:103EC000884208D01820FFF7CEFE1820FFF7CBFE5F
:103ED0006FF0010058E792480068001D90490860A3
:103EE00095480068001D9449086009F10409049888
:103EF000814506DA89490198084489490968884258
:103F0000D1D80620FFF7AFFE7F1C0120029000BF32
:103F10001CE01820FFF7A7FE1820FFF7A4FE6FF0A3
:103F2000020031E70298002801DD0AF1010ABAF126
:103F30000F0F07DD1820FFF796FE1820FFF793FEFE
:103F4000002021E74320FFF78EFE00BF00BF03984B
:103F500000283FF403AF00BF00BFBBF1000F3FF4E8
:103F6000F8AE00BF00BF01980EE701460020704781
:103F70002DE9FE4305460F4690460120287000209B
:103F80006870FF20A870002404E0395DE01C29540B
:103F9000601C84B2385D08B1FF2CF6DD0021E01C06
:103FA00029546846D8F80010FFF755F80026201D60
:103FB00084B208E03046711C8EB21DF80020204605
:103FC000611C8CB22A541DF806000028F2D1264646
:103FD00003E00020A855701C86B2832EF9DBBDE8F3
:103FE000FE83F0B5074614461D46B5F5806F02D333
:103FF0004FF4806C01E04FF0800C63469D4201D28B
:10400000AC4600E09C461FFA8CF2B3F5806F04D1F9
:104010004FF0020C81F800C003E04FF0010C81F872
:1040200000C04C706FEA040C81F802C03E460320C9
:1040300007E016F801CB01F800C000F1010C1FFAEF
:104040008CF002F1030C6045F3DB9A420EDC1FFAA0
:104050008CF007E04FF01A0C01F800C000F1010CE1
:104060001FFA8CF003F1030C6045F3DBF0BD10B5D3
:1040700003460C46194644F4807200BF49005200C2
:1040800012F4807F00D0491C11F4803F02D041F22D
:104090002100414012F4803FF0D088B210BDF0B54D
:1040A00005460E460024AF1905E015F8011BA0B225
:1040B000FFF7DDFF0446BD42F7D3A0B20021FFF7B2
:1040C000D6FF044620460021FFF7D1FF04462046D4
:1040D000F0BD30B502460023541802E012F8015B2F
:1040E0002B44A242FAD3D8B230BD70B505460E4675
:1040F000002404E0285DFFF7B6FD601C84B2B442E2
:10410000F8DB70BD2DE9F74FADF5A36D00200190F0
:10411000814600248046002617E000000060000869
:104120003C000020540400204800002044000020EF
:10413000400000204C00002050000020DDF81C054D
:10414000805D04A98855701CC6B2FF2EF6DB0120E5
:1041500001900DF5A46204A944A8FFF709FF00BF70
:10416000832144A8FFF7C1FF019860B180210DF2BF
:104170001310FFF794FF05462812FFF774FDE8B20D
:10418000FFF771FD08E080210DF21310FFF7A1FF8A
:1041900003900398FFF767FD42F2107102A8FFF742
:1041A00051FD30B99DF80800062803D14FF00108F1
:1041B00000E0641CB8F1000F01D10A2CD0D30A2C06
:1041C00004D3E0B20DF2245DBDE8F08FDDF818A550
:1041D000DDF820954FF0010B59E00BF0FF024B4644
:1041E00044A95046FFF7FDFE4FF0000800208DF86F
:1041F0000800002400BFB9F5806F02D34FF4806738
:1042000000E08027F81C81B244A8FFF76EFF0198F8
:1042100060B139460DF21310FFF741FF0546281231
:10422000FFF721FDE8B2FFF71EFD08E039460DF269
:104230001310FFF74EFF03900398FFF714FD544946
:1042400002A8FFF7FFFCC0B99DF80800062814D1AA
:104250004FF00108B9450CD9BA44A9EB0709BBF5E1
:104260007A7F01D1FF20ADE70BF101001FFA80FB3F
:1042700004E0BA444FF0000900E0641CB8F1000FFC
:1042800001D10A2CB7D30A2C01D3E0B29AE7B9F1D5
:10429000000FA2D14FF0000800208DF80800002484
:1042A00000BF0420FFF7DFFC42F2107102A8FFF705
:1042B000C9FC30B99DF80800062802D14FF001086A
:1042C00000E0641CB8F1000F01D10A2CE9D30A2CDC
:1042D00001D3E0B276E74FF0000800208DF8080027
:1042E000002401208DF8100100208DF81101FF201D
:1042F0008DF81201032604E0002044A98855701CA3
:10430000C6B2832EF8DB00BF832144A8FFF7EDFE81
:1043100080210DF21310FFF7C2FE05462812FFF7A9
:10432000A2FCE8B2FFF79FFC42F2107102A8FFF76F
:1043300089FC30B99DF80800062803D14FF0010828
:1043400000E0641CB8F1000F01D10A2CDCD30A2C68
:1043500001D3E0B236E700BF0420FFF784FC42F24D
:10436000107102A8FFF76EFC30B99DF8080006280E
:1043700002D14FF0010800E0641CB8F1000F01D138
:104380000A2CE9D30A2C01D3E0B21BE7002019E77D
:10439000A0860100032A40F2308010F0030C00F0E8
:1043A000158011F8013BBCF1020F624498BF11F86F
:1043B00001CB00F8013B38BF11F8013BA2F1040228
:1043C00098BF00F801CB38BF00F8013B11F00303A0
:1043D00000F02880083AC0F0088051F8043B083A01
:1043E00051F804CBA0E80810F5E7121D5CBF51F8A6
:1043F000043B40F8043BAFF30080D20724BF11F820
:10440000013B11F801CB48BF11F8012B24BF00F884
:10441000013B00F801CB48BF00F8012B7047704703
:104420007047704710B5203AC0F00B80B1E81850C3
:10443000203AA0E81850B1E81850A0E81850BFF48E
:10444000F5AF5FEA027C24BFB1E81850A0E818502D
:1044500044BF18C918C0BDE810405FEA827C24BF81
:1044600051F8043B40F8043B08BF7047D20728BF0F
:1044700031F8023B48BF11F8012B28BF20F8023B5E
:1044800048BF00F8012B7047754600F029F8AE468A
:1044900005006946534620F00700854618B020B550
:1044A000FFF7BCFABDE820404FF000064FF00007D0
:1044B0004FF000084FF0000B21F00701AC46ACE8CC
:1044C000C009ACE8C009ACE8C009ACE8C0098D4639
:1044D00070470446AFF300802046FBF770FE0000F3
:1044E000004870475405002001491820ABBEFEE784
:1044F00026000200704700002E2E2E616E6420619F
:104500002053797374656D205265736574207769E3
:104510006C6C2062652067656E65726174656420ED
:10452000746F2072652D6C6F616420746865206EF5
:104530006577206F7074696F6E2062797465730D92
:104540000A0000000D0A3D3D3D3D3D3D3D3D3D3DE8
:104550003D3D3D3D3D3D3D3D3D3D3D3D3D3D3D3D8B
:104560003D3D3D3D3D3D3D3D3D3D3D3D3D3D3D3D7B
:104570003D3D3D3D3D3D3D3D3D3D3D3D3D3D3D3D6B
:104580003D3D3D3D3D3D3D3D3D3D3D3D000000004F
:104590000D0A3D2020202020202020202020202027
:1045A0002028432920434F5059524947485420322C
:1045B0003031302053544D6963726F656C6563749C
:1045C000726F6E696373202020202020202020201D
:1045D000202020202020203D000000000D0A3D204A
:1045E00020202020202020202020202020202020CB
:1045F00020202020202020202020202020202020BB
:1046000020202020202020202020202020202020AA
:10461000202020202020202020202020202020209A
:104620002020203D000000000D0A3D2020202020F9
:10463000496E2D4170706C69636174696F6E2050B2
:10464000726F6772616D6D696E67204170706C6921
:10465000636174696F6E20202856657273696F6E8E
:1046600020332E332E302920202020202020203DD2
:10467000000000000D0A3D202020202020202020C6
:10468000202020202020202020202020202020202A
:10469000202020202020202020204279204D43442B
:1046A000204170706C69636174696F6E205465613C
:1046B0006D202020202020202020203D0000000010
:1046C0000A0A0D2050726F6772616D6D696E672006
:1046D000436F6D706C6574656420537563636573B7
:1046E0007366756C6C79210A0D2D2D2D2D2D2D2DB8
:1046F0002D2D2D2D2D2D2D2D2D2D2D2D2D2D2D2DEA
:104700002D2D2D2D2D2D2D2D2D0D0A204E616D655C
:104710003A20000034470008000000205400000048
:104720006C0100088847000854000020640B00005A
:104730008801000800A24A040000000000000000F8
:104740000102030406070809000000000102030437
:10475000010203040607080902040608000000001D
:104760000000000000000000000000000000000049
:1047700000600008000800000000000000000000C9
:0847800004000000000000002D
:0400000508003A01B4
:00000001FF
