:020000040800F2
:10600000C8060020CD610008D5610008D7610008EE
:10601000D9610008DB610008DD61000800000000B4
:10602000000000000000000000000000DF61000828
:10603000E161000800000000E3610008E56100087C
:106040009B6300089F630008A363000809630008BE
:10605000A7630008AB630008AF630008B3630008E0
:10606000B7630008BB630008BF630008E76100086E
:10607000E7610008E7610008E7610008E7610008E0
:10608000E7610008E7610008E7610008E7610008D0
:10609000E7610008E7610008E7610008F3630008B2
:1060A000E7610008E7610008E76100080364000891
:1060B000076400080B6400080F64000813640008FC
:1060C000176400081B6400081F64000823640008AC
:1060D00027640008F36900082B6400082F64000897
:1060E000336400083363000837640008E761000880
:1060F000E7610008E7610008E7610008E761000860
:10610000E7610008E7610008E7610008E76100084F
:10611000E7610008E7610008E7610008E76100083F
:10612000E7610008E7610008E7610008E76100082F
:1061300000F002F800F03AF80AA090E8000C82445F
:106140008344AAF10107DA4501D100F02FF8AFF23C
:10615000090EBAE80F0013F0010F18BFFB1A43F045
:10616000010318478C2C0000AC2C0000103A24BF0F
:1061700078C878C1FAD8520724BF30C830C144BFAC
:1061800004680C60704700000023002400250026EE
:10619000103A28BF78C1FBD8520728BF30C148BF8A
:1061A0000B6070471FB51FBD10B510BD02F0DAFDC2
:1061B0001146FFF7F7FF00F000FC02F0F8FD03B412
:1061C000FFF7F2FF03BC02F0FDFD00000948804725
:1061D00009480047FEE7FEE7FEE7FEE7FEE7FEE7C9
:1061E000FEE7FEE7FEE7FEE704480549054A064BE1
:1061F00070470000F588000831610008C8000020E1
:10620000C8060020C8020020C8020020F748007815
:10621000FF2811D0F5490878F549F44A1278895CCD
:10622000F24A117011460978FF2901D1F14A117023
:10623000FF21EF4A11547047FF20FCE7704710B56B
:10624000FFF7FCFF10BD0146E948405CFF2803D181
:10625000E8480078884201D1012070470020FCE71F
:1062600010B504462046FFF7EEFF80B9DF480078FE
:10627000FF2804D1DD480470DE48047005E0DC48E6
:10628000DC4909784454DB480470012010BD00202B
:10629000FCE770B5044602F0A3FD06462046FFF772
:1062A000DFFF08B1002000E005200546304602F07F
:1062B00090FD284670BD10B50220FFF7EAFF0446A6
:1062C000204610BD10B5FFF7F6FF10BD10B5FFF763
:1062D000F9FF10BD10B502F083FD0446022001F065
:1062E0007FF901F041F90021022001F0E1F801F00D
:1062F0003BF90020C0490870204602F06AFD10BD3D
:1063000010B5FFF7E7FF10BD10B5022001F058F9F6
:1063100018B1FFF7F5FFFFF7D9FF042001F050F99E
:1063200030B1042001F05CF901F01EF9FFF787FF9E
:1063300010BD10B5022001F043F950B14FF4003008
:1063400000F0C9FC012000F0C8FE10B1012000F0EF
:10635000CEFEFFF7D9FF10BD704710B5FFF7FCFF69
:1063600010BD00BFFEE700BFFEE700BFFEE700BFB5
:10637000FEE700BFFEE700BFFEE700BFFEE700BF8D
:10638000FEE700BFFEE700BFFEE700BFFEE700BF7D
:10639000FEE700BFFEE700BFFEE700BFFEE700BF6D
:1063A000FEE700BFFEE700BFFEE700BFFEE700BF5D
:1063B000FEE700BFFEE700BFFEE700BFFEE700BF4D
:1063C000FEE700BFFEE700BFFEE700BFFEE700BF3D
:1063D000FEE700BFFEE700BFFEE700BFFEE700BF2D
:1063E000FEE700BFFEE700BFFEE700BFFEE700BF1D
:1063F000FEE700BFFEE700BFFEE700BFFEE700BF0D
:10640000FEE700BFFEE700BFFEE700BFFEE700BFFC
:10641000FEE700BFFEE700BFFEE700BFFEE700BFEC
:10642000FEE700BFFEE700BFFEE700BFFEE700BFDC
:10643000FEE700BFFEE700BFFEE7704710B501F0C2
:1064400057F80446204610BD10B5FFF7F7FF044685
:10645000204610BD10B5FFF7F7FF10BD10B5FFF7D0
:10646000F9FF0446204610BD10B50120FFF711FFCB
:106470000446204610BD70477047704710B5002095
:10648000FFF707FF0446204610BD10B5FFF7F6FFE3
:1064900010BD10B5044624B1012C05D0022C09D141
:1064A00005E0FFF7F2FF09E0FFF7E7FF06E0FFF77F
:1064B000E3FF03E02046FFF7DEFF00BF00BF10BD93
:1064C0002DE9F0410646002521E005EB45004B494A
:1064D00001EB8004207AC0F34000B0B12068371A85
:1064E0006068B84210D8207A10F0010F04D0207AEA
:1064F00020F00200207203E0D4E90001084420608B
:106500002846FFF7C6FF04E000BF681CC5B2032D94
:10651000DBDB00BFFFF7A8FFBDE8F08110B5FFF798
:106520009DFF0446FFF7CCFF10BD10B5FFF7F6FF47
:1065300010BD33480068704710B5FFF7FAFF0446F6
:10654000204610BD10B502F04BFC0446012102208C
:1065500000F0AEFF01F008F801202749087020463E
:1065600002F037FC10BD2DE9F04707460D46FFF756
:1065700065FF0446A4EB070800F0BAFF0446A845EF
:106580000ED3601C00F0D8FF02F02AFC0646601C07
:106590001B490860304602F01CFC00F0E5FF21E0DA
:1065A000A5EB0806012E0ED8601C00F0C5FF02F016
:1065B00017FC8146601C12490860484602F009FC3D
:1065C00000F0D2FF0DE0A01900F0B6FF02F008FCC9
:1065D0008146A0190A490860484602F0FAFB00F01B
:1065E000C3FF00BFFFF7AEFFBDE8F087010000204A
:1065F00003000020020000201400002040000020C2
:106600001000002070B504460D4629462046FFF7CD
:10661000AAFF70BD70B506460C461546F7480460E3
:10662000F748057021463046FFF7ECFF70BD10B506
:10663000F348007840B9FFF77FFF04460022EF4897
:1066400001682046FFF7E6FFFFF76FFF10BD70B54A
:1066500004460D46012229462046FFF7DBFF70BDA8
:1066600070B504460D4629462046FFF7F0FF70BD81
:1066700010B5FFF745FE10BD10B5FFF7F9FF10BDCF
:1066800010B5FFF7F9FF10BD2DE9F041FFF7E6FE69
:1066900006466FF000440027FFF7F2FF002513E0E5
:1066A00005EB4501D74A02EB8100017AC1F34001B5
:1066B00041B10368F21A4368991AA14201DA0C4603
:1066C000012700BF681CC5B2032DE9DB4FB1002CC8
:1066D00003DC3046FFF7F4FE03E021463046FFF7C7
:1066E000BFFFBDE8F08170B505460E46002403E00B
:1066F000285D02F087F9641CB442F9DB002070BD0C
:1067000070B504460D4629462046FFF7ECFF0646C5
:10671000304670BD10B55420BB4908700121BA48FD
:10672000FFF7EEFF10BD10B5044624B1012C05D0D3
:10673000022C09D105E0FFF7EDFF09E0FFF7A4FF08
:1067400006E0FFF774FF03E02046FFF776FE00BF88
:1067500000BF10BD0020704710B5FFF7FBFF10BD54
:1067600000BF02F03DFB044601E0FFF7F5FFFFF735
:106770004DFD0546FF28F8D0204602F02AFB2846AA
:10678000FFF7D1FFEDE7FFF7EBFF10B502F036F9A9
:10679000002010BD10B5FFF7F8FF0446204610BDDD
:1067A0002DE9F04105460E461746984605EB450093
:1067B000944901EB800426606760207A68F300004A
:1067C0002072207A20F00200801C2072FFF74CFE1D
:1067D000BDE8F08170B505460C46FFF73FFE064662
:1067E0000023224631462846FFF7DAFF70BD10B578
:1067F000044621460220FFF7EDFF10BD10B5044608
:1068000021460120FFF7E6FF10BD10B504462146E2
:106810000020FFF7DFFF10BD10B5FA20FFF7F5FFEE
:106820004FF4FA70FFF7EAFF4FF47A70FFF7DFFFDB
:10683000FFF7B0FF10BD10B5FFF7EEFF10BD10B5AC
:10684000FFF7E4FC0446FF2C01D1002010BD2046D8
:10685000FFF769FF0120F9E710B5FFF7F0FF0446E5
:10686000204610BD00B585B04FF4C06000F0DEF8E2
:1068700003208DF8100001208DF8110000208DF804
:10688000120001208DF8130004A800F0D4F81D2098
:106890008DF8100000208DF8110001208DF81200F5
:1068A0008DF8130004A800F0C6F801214FF0C05085
:1068B00000F0A3FD0121022000F09FFD0121042032
:1068C00000F08EFD8020ADF80C0004208DF80F0044
:1068D00003208DF80E0003A94C4800F065FA012052
:1068E00000F0B9FB00F010F9012000F0E9FC00BF56
:1068F000412000F04EFC0028FAD04FF4807000F0E8
:10690000F8FC012000F0FBFC00F036FE00F02CFE4D
:106910001F2000F003FE00F027FE002000F0F1FD34
:1069200000F022FE0121042000F0C2FD00F01CFE58
:106930000420ADF800000020ADF802000120ADF801
:1069400004000020ADF80600ADF8080069463048A4
:1069500001F0B7F901212E4801F07CFA012204214F
:106960002B4801F092FA00202A49086005B000BDCA
:1069700010B5FFF777FF0446204610BD10B501F0B3
:10698000B9FF0121FC2000F02BFD002010BD10B547
:10699000FFF7F4FF0446204610BD10B5FF22032187
:1069A0001D4802F08BF9FF201C4908701C49087033
:1069B00010BD10B5FFF7F1FF10BD02F011FA04464B
:1069C000FFF7F7FFFFF7E3FF00BFFFF745FF0028E2
:1069D000FBD1FFF7CDFF00BFFFF73EFF0028FBD143
:1069E000204602F0F6F900F01DF8FFF724FFFFF74C
:1069F000CAFE10B502F009F910BD00000800002021
:106A00000C00002040000020000000200008014091
:106A100000040040100000200300002001000020BE
:106A200002000020002062B6704700003149014397
:106A3000314A1160704770B5002100230F22C478DD
:106A40000CB32D4C246804F4E064C4F5E064210A1E
:106A5000C1F10403CA40447804FA03F18478144075
:106A600021430901254C0678A155047804F01F053F
:106A70000124AC4005786D114FF0E02606EB85054A
:106A8000C5F8004109E0047804F01F050124AC407A
:106A90001B4D0678761145F8264070BD194A0A400C
:106AA0000243154B1B1F1A60704739B1124A121D61
:106AB00012680243104B1B1D1A6006E00E4A121D9D
:106AC000126882430C4B1B1D1A607047042808D1C2
:106AD0004FF0E021096941F004014FF0E02211611B
:106AE00007E04FF0E021096921F004014FF0E022B6
:106AF000116170470000FA050CED00E000E400E0D1
:106B000080E100E080FFFF1F10B5012000F09CFC39
:106B1000002000F099FC10BD2A49086070472949FF
:106B2000091F086070472749843108607047014693
:106B30000020254A10884FF67F4210400843224A21
:106B400010807047014600201F4A10884FF680725F
:106B5000104008431C4A1080704708B5002200927C
:106B6000194A2C3A0092009A02440092009A11604D
:106B700008BD08B501460020009013482C3800904D
:106B80000098084400900098008808BD0D489C308B
:106B90000068C0B270470C480830008840F001001F
:106BA00009490831088070470648A0300068C0B223
:106BB000704705480830008840F00200024908315B
:106BC0000880704704860D422C6C00400020444928
:106BD0000860091D0860091D0860091D086041481A
:106BE0003F4914310860704700213D498279002AED
:106BF0003AD00A46126803689A430B461A600A1D87
:106C0000126803689A430B1D1A60027911440A68DE
:106C100003681A430A60324A0832126803689A43CA
:106C20002F4B08331A601A1D126803689A432C4BC5
:106C30000C331A604279102A0ED11A1F12680368A9
:106C40001A43274B08331A601A1D126803681A4347
:106C5000234B0C331A600DE02149427911440A6834
:106C600003681A430A6005E0027911440A68036860
:106C70009A430A6070470021016001710C21417143
:106C80000021817170471649103109680143144A87
:106C900010321160704701460020114A1432126808
:106CA0000A4201D0012000E0002070470C49143155
:106CB00008607047014600200022094B1B6803EA68
:106CC0000102074B14331B680B4202D00AB10120AA
:106CD00000E000207047024914310860704700004E
:106CE00000040140FFFF0F0010B50446CA4884426B
:106CF00008D10121042000F08DFB0021042000F0C8
:106D000089FB46E0C548844208D10121082000F0F3
:106D100081FB0021082000F07DFB3AE0C04884425E
:106D200008D10121102000F075FB0021102000F097
:106D300071FB2EE0BB48844208D10121202000F0E5
:106D400069FB0021202000F065FB22E0B648844268
:106D500008D10121402000F05DFB0021402000F01F
:106D600059FB16E0B148844208D10121802000F08F
:106D700051FB0021802000F04DFB0AE0AC4884422A
:106D800007D10121801500F045FB0021A01500F07E
:106D900041FB10BD10B50121084600F03BFB00216E
:106DA000012000F037FB10BD2DE9F041024600251F
:106DB0000026002000230024002791F803C00CF0D7
:106DC0000F0591F803C01CF0100F03D091F802C01A
:106DD0004CEA050591F800C0BCF1000F31D01468F1
:106DE00000202BE04FF0010C0CFA00F3B1F800C0CA
:106DF0000CEA03069E4220D183004FF00F0C0CFAE0
:106E000003F7BC4305FA03FC4CEA040491F803C001
:106E1000BCF1280F06D14FF0010C0CFA00FCC2F8AF
:106E200014C00AE091F803C0BCF1480F05D14FF03F
:106E3000010C0CFA00FCC2F810C0401C0828D1D389
:106E40001460B1F800C0BCF1FF0F34DD54680020BD
:106E50002EE000F1080C4FF0010808FA0CF3B1F82D
:106E600000C00CEA03069E4221D183004FF00F0CB4
:106E70000CFA03F7BC4305FA03FC4CEA040491F84E
:106E800003C0BCF1280F05D100F1080C08FA0CF87A
:106E9000C2F8148091F803C0BCF1480F07D100F18B
:106EA000080C4FF0010808FA0CF8C2F81080401CDA
:106EB0000828CED35460BDE8F0814FF6FF71018001
:106EC000022181700421C17070470246002093683E
:106ED0000B4201D0012000E0002070470146886885
:106EE00080B2704702460020D3680B4201D00120D7
:106EF00000E0002070470146C86880B27047016119
:106F00007047416170470AB1016100E0416170471B
:106F1000C16070474FF480320A43826181618261AF
:106F200082698269704702460020424B18684FF61A
:106F30008073184040EA021008433E4B18607047C7
:106F40003D49C8617047F0B50A460023002400217E
:106F5000002500F00046B6F1004F02D1354EF16930
:106F600001E0344E7168C0F3034583B200F440166B
:106F7000B6F5401F08D121F070612E4E766826F0DC
:106F800070662C4F7E6012E000F48016B6F5801F0C
:106F900006D1032606FA05F4A14341F0706106E02C
:106FA000460D360103FA06F6B14341F0706122B195
:106FB000460D360103FA06F6314300F00046B6F1FD
:106FC000004F02D11B4EF16101E01A4E7160F0BD1D
:106FD00030B500228B071C0F0F2303FA04F2154B68
:106FE00008338C1053F824309343124C08348D101E
:106FF00044F8253023468C1053F824308C07240F96
:1070000000FA04F423430B4C08348D1044F8253067
:1070100030BD0A490860704700080140000C01407B
:10702000001001400014014000180140001C014004
:10703000002001400000014000002042DC0020420E
:1070400010B50121080700F0F2F900214FF080503F
:1070500000F0EDF910BD2949086270472749086121
:10706000704701460020264A106820F0E0000843DF
:107070001060704723490860704710B50246002031
:107080001F4B186820F00300104318601E4B1B684C
:1070900043F004031C4C2360012901D130BF00E000
:1070A00020BF194B1B6823F00403174C236010BD4D
:1070B0001348006840F00400114908600846006861
:1070C00040F0020008601048006840F004000E49DB
:1070D000086000BF00BF30BF704701460020084A6B
:1070E00052680A4201D0012000E0002070470449A4
:1070F000096841EA8001024A1160704700000E42AF
:1071000000700040A0000E4210ED00E0DD48006875
:1071100040F00100DB49086008464068DA49084051
:10712000D849486008460068D8490840D5490860F1
:107130000846006820F4802008600846406820F473
:10714000FE0048604FF41F0088607047CD49096811
:1071500021F48031CB4A11601146096821F4802165
:107160001160B0F5803F03D0B0F5802F0ED106E05E
:10717000C449096841F48031C24A116007E0C1493D
:10718000096841F4A021BF4A116000E000BF00BFC0
:10719000704710B501460022002300204A11012A41
:1071A00002D1B84C236806E0022A02D1B54C236A0A
:1071B00001E0B44C636A01F01F02012494401C42B8
:1071C00001D0012000E0002010BD38B50020009063
:1071D0000024002500BF3120FFF7DBFF05460098A3
:1071E000401C00900098B0F5A06F01D0002DF2D0A7
:1071F0003120FFF7CEFF08B1012400E00024204633
:1072000038BD014600209F4A106820F0F80040EA8F
:10721000C100106070479E49086070470246002018
:10722000984B586820F47C1042EA01031843954BB0
:107230005860704796490866704701460020914A99
:10724000506820F003000843506070478D48406844
:1072500000F00C007047014600208A4A506820F078
:10726000F00008435060704701460020854A50688E
:1072700020F4E06008435060704701460020814AD6
:10728000506820F4605040EAC1005060704729B156
:107290007C4A527A02437B4B5A7204E0794A527A12
:1072A0008243784B5A7270477A49086070470146AA
:1072B0000020744A506820F44040084350607047F2
:1072C0000021754A11706F4A82F82010012802D0FF
:1072D000042808D103E001216F4A117004E0052160
:1072E0006D4A117000E000BF00BF70476B49086035
:1072F00070476449096A0143624A116270476749ED
:1073000044390860704730B5002100220024002372
:107310005C4D6D6805F00C0121B1042905D00829E8
:1073200023D105E05E4D056022E05D4D05601FE064
:10733000544D6D6805F47012524D6D6805F480343B
:10734000022505EB92421CB9564D554305600BE0F2
:107350004C4D6D6815F4003F03D0524D5543056008
:1073600002E04F4D5543056002E04D4D056000BF02
:1073700000BF444D6D6805F0F00109094A4D6B5C92
:107380000568DD4045603F4D6D6805F4E061090A20
:10739000454D6B5C4568DD4085603A4D6D6805F490
:1073A0006051C90A404D6B5C4568DD40C560354D94
:1073B0006D6805F44041890B3C4D6B5CC568B5FBBD
:1073C000F3F5056130BD29B12E4A526902432D4BB8
:1073D0005A6104E02B4A526982432A4B5A61704732
:1073E00029B1284A92690243264B9A6104E0254A52
:1073F00092698243234B9A61704729B1214AD2692D
:107400000243204BDA6104E01E4AD26982431D4BDD
:10741000DA61704729B11B4AD2680243194BDA601E
:1074200004E0184AD2688243164BDA60704729B1EB
:10743000144A12690243134B1A6104E0114A12699B
:107440008243104B1A6170471449403908607047F5
:107450000F49C86470470B49C87170470948406AB2
:1074600040F0807007494862704701460020054A95
:1074700092680A4201D0012000E0002070470149D3
:1074800088727047001002400000FFF8FFFFF6FE10
:1074900000004242D8004242201002408004424292
:1074A00000127A0000093D00150000202500002090
:1074B00029B14F4A128802434D4B1A8004E04C4ACE
:1074C000128882434A4B1A8070474948001D008841
:1074D00040F010004649091D088070474448001DCF
:1074E00000884FF6EF7108404149091D0880704738
:1074F00000213F481C300188001F008841EA0040FD
:10750000704700B50246FFF7E0FF100C384918310C
:107510000880091D0A80FFF7E1FF00BD00B50246A3
:10752000FFF7D3FFC2F30340314908310880091D3A
:107530000A80FFF7D3FF00BD00B50246FFF7C5FF85
:10754000100C2B4920310880091D0A80FFF7C6FF67
:1075500000BD00202649103109880907080B24497D
:10756000143109880843704700BF2148001D008876
:1075700010F0200FF9D070471D48001D00884FF60D
:10758000F77108401A49091D088000BF1848001DFE
:10759000008810F0080FF9D0704701460020144A07
:1075A000121D12880A4201D0012000E0002070471D
:1075B0000F49091D098881430D4A121D118070472A
:1075C000014600200A4A121D12880A40D0B2084A19
:1075D00012880A4202D008B1012000E00020704762
:1075E0000349091D09888143014A121D1180704712
:1075F0000028004010B50446FE48844208D101210D
:10760000C014FFF707FF0021E014FFF703FFC4E0F9
:10761000B4F1804F08D101210846FFF708FF00218F
:107620000120FFF704FFB8E0F348844208D10121AC
:107630000220FFF7FCFE00210220FFF7F8FEACE07D
:10764000EE48844208D101210420FFF7F0FE00211A
:107650000420FFF7ECFEA0E0E948844208D10121B4
:107660000820FFF7E4FE00210820FFF7E0FE94E089
:10767000E448844208D101211020FFF7D8FE002100
:107680001020FFF7D4FE88E0DF48844208D10121B2
:107690002020FFF7CCFE00212020FFF7C8FE7CE071
:1076A000DA48844208D101214014FFF7B3FE0021DB
:1076B0006014FFF7AFFE70E0D548844209D1012184
:1076C000C804FFF7A7FE00214FF40020FFF7A2FE39
:1076D00063E0D048844209D101210805FFF79AFEF2
:1076E00000214FF48010FFF795FE56E0CA4884420F
:1076F00009D101214805FFF78DFE00214FF400104C
:10770000FFF788FE49E0C548844208D101214020A6
:10771000FFF78DFE00214020FFF789FE3DE0C048C5
:10772000844208D101218020FFF781FE00218020C2
:10773000FFF77DFE31E0BB48844208D1012180156E
:10774000FFF775FE0021A015FFF771FE25E0B64892
:10775000844209D101210804FFF75CFE00214FF4A7
:107760008030FFF757FE18E0B048844209D101216C
:107770004804FFF74FFE00214FF40030FFF74AFEA8
:107780000BE0AB48844208D101218804FFF742FE98
:1077900000214FF48020FFF73DFE10BD002202883B
:1077A000944B98420ED0994B98420BD0B0F1804F39
:1077B00008D0914B984205D0904B984202D0904B04
:1077C000984204D14FF68F731A404B881A438D4B61
:1077D000984207D08C4B984204D04FF6FF431A4092
:1077E000CB881A4302808B8883850B880385814B65
:1077F00098420BD0854B984208D08B4B984205D0CD
:107800008A4B984202D08A4B984201D10B7A038668
:1078100001238382704770B5002400220023058C69
:107820004FF6FE7635400584028C8388048B4FF634
:107830008F752C40B51E2C400D882C43751E2A4098
:107840000D892A434D882A436A4DA8420BD06F4DBB
:10785000A84208D0744DA84205D0744DA84202D069
:10786000734DA84213D14FF6F7752A404D892A432C
:107870004FF6FB752A408D882A434FF6FF652B4053
:107880004FF6FF552B408D892B43CD892B438380A9
:107890000483CD888586028470BD70B500240022E3
:1078A0000023058C4FF6EF7635400584028C8388E3
:1078B000048B48F6FF752C404FF6FF452C400D8891
:1078C0004FF6FF7606EA05252C434FF6DF752A4072
:1078D0000D8906EA05152A434D8806EA05152A434F
:1078E000444DA84202D0494DA8421DD14FF67F75A4
:1078F0002A404D894FF6FF7606EA05152A434FF6D2
:10790000BF752A408D8806EA05152A434FF6FF35D4
:107910002B404FF2FF752B408D8906EA85052B43DE
:10792000CD8906EA85052B4383800483CD880587AE
:10793000028470BD70B5002400220023058C4FF630
:10794000FF6635400584028C8388848B4FF68F75E3
:107950002C404FF6FC752C400D882C434FF6FF55FC
:107960002A400D894FF6FF7606EA05252A434D8801
:1079700006EA05252A431F4DA84202D0234DA842FE
:107980001DD14FF2FF752A404D894FF6FF7606EA6A
:1079900005252A434FF6FF352A408D8806EA05253E
:1079A0002A434EF6FF752B404DF6FF752B408D890F
:1079B00006EA05152B43CD8906EA05152B4383807E
:1079C0008483CD888587028470BD70B50022002332
:1079D0000024058C4EF6FF7635400584038C8488A0
:1079E000828B48F6FF752A404FF6FF452A400D88E6
:1079F00020E00000002C014000040040000800408E
:107A0000000C004000100040001400400034014011
:107A1000004C01400050014000540140001800405B
:107A2000001C004000200040004001400044014094
:107A3000004801404FF6FF7606EA05252A434DF639
:107A4000FF752B400D8906EA05352B434D8806EA64
:107A500005352B43FA4DA84202D0FA4DA84208D171
:107A60004BF6FF752C408D894FF6FF7606EA85159B
:107A70002C4384808283CD88A0F84050038470BD5D
:107A8000828B4FF2FF331A408283828B4FF6FF7353
:107A900003EA01231A4382837047F0B50C4615466A
:107AA000002200210026078C4EF6FF7C07EA0C0717
:107AB0000784828B018C4FF6FF7707EA043640F685
:107AC000FF473A404FF6FF7707EA05273A434FF65C
:107AD000FF7707EA03373A43D94FB8420ED0D94F60
:107AE000B8420BD0B0F1804F08D0D74FB84205D084
:107AF000D64FB84202D0D64FB84206D14DF6FF77E6
:107B0000394046F48057394305E047F6FF5739407E
:107B100044F48057394382830184F0BD828B4FF651
:107B2000F3731A408283828B0A4382837047F0B5D5
:107B30000C461546002200210026078C4FF6FF6CEC
:107B400007EA0C070784828B018C4FF6FF7707EA60
:107B500004264FF60C773A404FF6FF7707EA0317F3
:107B60002F433A43B64FB8420ED0B64FB8420BD06F
:107B7000B0F1804F08D0B44FB84205D0B34FB842EF
:107B800002D0B34FB84206D14FF6FF57394046F402
:107B90008077394305E04FF2FF57394044F480774E
:107BA000394382830184F0BD028B4FF2FF331A40C8
:107BB0000283028B4FF6FF7303EA01231A43028309
:107BC0007047F0B50C461546002200210026078CB0
:107BD0004FF6EF7C07EA0C070784028B018C4FF607
:107BE000FF7707EA041640F6FF473A404FF6FF7763
:107BF00007EA03373A434FF6FF7707EA05273A4388
:107C00008F4FB8420ED08F4FB8420BD0B0F1804F9B
:107C100008D08D4FB84205D08C4FB84202D08C4F5F
:107C2000B84206D14FF6DF77394046F010073943A6
:107C300005E04FF65F77394044F01007394302837F
:107C40000184F0BD028B4FF6F3731A400283028B5E
:107C50000A4302837047F0B50C4615460022002106
:107C6000068C4FF6FE773E400684028B018C4FF661
:107C70000C7632407E1C06EA03162E433243704EC9
:107C8000B0420ED06F4EB0420BD0B0F1804F08D052
:107C90006D4EB04205D06D4EB04202D06C4EB04237
:107CA00006D14FF6FD76314044F00106314305E040
:107CB0004FF6F576314044F00106314302830184EA
:107CC000F0BD70B505460C465D4885420ED05D4856
:107CD00085420BD0B5F1804F08D05B48854205D076
:107CE0005A48854202D05A48854200D100E000BF80
:107CF000208850B92389A28861882846FFF7ABFF06
:107D0000E1882846FFF79EFF25E0208804280AD155
:107D10002389A28861882846FFF753FFE188284617
:107D2000FFF742FF17E0208808280AD12389A2889C
:107D300061882846FFF7FBFEE1882846FFF7EEFE44
:107D400009E02389A28861882846FFF7A6FEE1881A
:107D50002846FFF795FE70BD2DE9F04105460C461B
:107D600000260127608808B9022600E00026A088C6
:107D7000012801D1022700E001272088A0B923892A
:107D8000A28861882846FFF766FFE1882846FFF74A
:107D900059FF23893A4631462846FFF712FFE1880A
:107DA0002846FFF701FF13E02389A288618828464F
:107DB000FFF707FFE1882846FFF7F6FE23893A46DA
:107DC00031462846FFF747FFE1882846FFF73AFF8C
:107DD000BDE8F0810A884B881A438B881A43CB8808
:107DE0001A430B891A434B891A438B891A43A0F80B
:107DF000442070474FF6FF71818000210180C180CF
:107E00004180017270470021018041808180C180E2
:107E1000018141818181C1817047002101804180C0
:107E2000012181800021C1800181704700210180F2
:107E300041808180C1800181418181817047000042
:107E4000002C0140003401400004004000080040C4
:107E5000000C004021B1028842F00102028004E0DF
:107E600002884FF6FE731A400280704731B1B0F8B5
:107E7000442042F40042A0F8442005E0B0F8442039
:107E8000C2F30E02A0F8442070471AB183890B4355
:107E9000838102E083898B438381704781827047AD
:107EA00041EA0203A0F8483070471AB183890B43B6
:107EB000838102E083898B438381704701894FF678
:107EC000F8721140018170470A46002101894FF67E
:107ED0008F73194011430181704730B504460D4638
:107EE00029462046FFF7F0FF208940F00700208157
:107EF00030BD2DE9F04104460D4616461F46602D63
:107F000006D13B46012231462046FFF75AFE05E0E6
:107F10003B46012231462046FFF79DFE294620467A
:107F2000FFF7D2FF208940F007002081BDE8F081F3
:107F300030B50C4600210189C9B24FF6FF7505EA3C
:107F40000325154325432943018130BD2DE9F04127
:107F500005460E4617469846002443463A463146A3
:107F60002846FFF7E5FF2C894FF6F870044044F0EF
:107F700007044FF68F70044044F070042C81BDE874
:107F8000F081F0B504460D4616461F463B46324684
:107F900029462046FFF7CCFF208940F4804020810D
:107FA000F0BD0185828270470A46002101884FF6A4
:107FB0008F731940114301807047F0B50C46154688
:107FC0001E460021002200230189028B038C4FF6FC
:107FD000F877394021434FF6FC473A4040F2011709
:107FE0003A434FF6DD773B404FF6FF7707EA061737
:107FF0002F433B43018102830384F0BD0A460021E5
:10800000018B4FF68F7319401143018370470A4665
:108010000021018B48F6FF7319404FF6FF7303EA06
:1080200002231943018370470A460021818B4FF6D2
:108030008F7319401143818370470A460021818B59
:1080400048F6FF7319404FF6FF7303EA0223194302
:108050008183704721B1028842F08002028004E0EF
:1080600002884FF67F731A400280704721B18288E0
:1080700042F00402828004E082884FF6FB731A40CB
:108080008280704721B1828842F00802828004E039
:1080900082884FF6F7731A408280704721B1828838
:1080A00042F00102828004E082884FF6FE731A409B
:1080B000828070470A460021018B4FF6F773194002
:1080C0001143018370470A460021018B4FF2FF7371
:1080D00019404FF6FF7303EA0223194301837047E7
:1080E0000A460021818B4FF6F773194011438183B3
:1080F00070470A460021818B4FF2FF7319404FF6FB
:10810000FF7303EA02231943818370470A46002163
:10811000018B4FF6FB7319401143018370470A46E8
:108120000021018B4FF6FF3319404FF6FF7303EA2E
:1081300002231943018370470A460021818B4FF6C1
:10814000FB7319401143818370470A460021818BDC
:108150004FF6FF3319404FF6FF7303EA022319432A
:10816000818370470A460021018B4FF67F731940C7
:108170001143018370470A460021018BC1F30E01B0
:108180004FF6FF7303EA02231943018370470A463F
:108190000021818B4FF67F73194011438183704713
:1081A0000A460021818BC1F30E014FF6FF7303EAEB
:1081B00002231943818370470A460021018C4FF640
:1081C000FD7319401143018470470A460021018C58
:1081D0004FF6F77319401143018470470A46002196
:1081E000018C4FF6DF7319404FF6FF7303EA021359
:1081F0001943018470470A460021018C4FF67F73B2
:1082000019404FF6FF7303EA0213194301847047C4
:108210000A460021018C4FF6FF5319404FF6FF73B9
:1082200003EA02231943018470470A460021018CA6
:108230004FF2FF7319404FF6FF7303EA022319430D
:10824000018470470A460021018C4DF6FF731940E6
:108250004FF6FF7303EA023319430184704730B5C8
:10826000002301248C40A3B2048C9C430484048C1E
:1082700002FA01F5ADB22C43048430BD30B50023C1
:1082800004248C40A3B2048C9C430484048C02FA22
:1082900001F5ADB22C43048430BD70B50346002017
:1082A00000241846183001258D40ACB21D8CA54322
:1082B0001D8409B1082909D100EB6100056825F08A
:1082C000700505600568154305600EE00D1FC5F3D8
:1082D0004E052844056825F4E045056005684FF61D
:1082E000FF7606EA02263543056070BD21B102889B
:1082F00042F00202028004E002884FF6FD731A4049
:108300000280704721B1028842F00402028004E03A
:1083100002884FF6FB731A400280704721B18288B1
:1083200042F08002828004E082884FF67F731A4018
:108330008280704702884FF6F7731A4002800288E5
:108340000A430280704782884FF68F731A408280FA
:1083500082880A438280704702894FF6F8731A4078
:10836000028102890A430281704702894FF67F73B6
:108370001A40028102890A43028170478184704752
:108380008185704781867047018770478187704774
:10839000A0F84010704702884FF6FF431A40028051
:1083A00002880A43028070470146888E7047014662
:1083B000088F70470146888F70470146B1F840002A
:1083C00070470146888C70470146088D7047024609
:1083D0000020138A0B4201D0012000E000207047EA
:1083E000CA430282704730B50246002000230024B1
:1083F000158A05EA0103958905EA010413B10CB158
:10840000012000E0002030BDCA4302827047000016
:1084100010B50446FB48844209D101218803FEF7C8
:10842000F9FF00214FF48040FEF7F4FF32E0F648F8
:10843000844209D101214804FEF7F9FF00214FF4DD
:108440000030FEF7F4FF25E0F048844209D1012115
:108450008804FEF7ECFF00214FF48020FEF7E7FFD1
:1084600018E0EB48844209D10121C804FEF7DFFF80
:1084700000214FF40020FEF7DAFF0BE0E5488442CC
:1084800008D101210805FEF7D2FF00214FF480102A
:10849000FEF7CDFF10BD2DE9F04786B005460E462C
:1084A0000024A24600BFA1460027B08900B100BF4A
:1084B0002F462C8A4CF6FF700440F08804432C822F
:1084C000AC894EF6F3100440B088318908437189B5
:1084D00008430443AC81AC8A4FF6FF400440B089A6
:1084E0000443AC8201A8FEF70EFFC648874202D1C2
:1084F000DDF810A001E0DDF80CA0A88910F4004F11
:1085000008D00AEBCA0000EB0A1031684900B0FB42
:10851000F1F807E00AEBCA0000EB0A1031688900A5
:10852000B0FBF1F86420B8FBF0F0040120096421ED
:1085300001FB1089A88910F4004F08D0322000EB0D
:10854000C900B0FBF1F000F00700044308E032205E
:1085500000EB09106421B0FBF1F000F00F000443C0
:108560002C8106B0BDE8F0874FF416510160002160
:108570008180C18001810C2141810021818170476E
:1085800010B502460020108A4FF2FF0318400B88F6
:108590004C8823438C882343CC8823431843108280
:1085A00010BD0021018041808180C180704721B1D0
:1085B000828942F40052828104E082894DF6FF7381
:1085C0001A4082817047F0B503460024002600253A
:1085D0000020A1F510676A3F00D100BF1846C1F323
:1085E000421401F01F06012707FA06F5012C01D1FC
:1085F0000C3004E0022C01D1103000E014301AB12C
:1086000007682F43076002E00768AF430760F0BDCB
:108610001AB1838A0B43838202E0838A8B4383826D
:108620007047028A4FF6F0731A400282028A0A43A8
:108630000282704782894FF2FF731A4082818289D9
:108640000A438281704721B1828942F0020282810D
:1086500004E082894FF6FD731A4082817047028AD6
:108660004FF6DF731A400282028A0A430282704781
:1086700021B1028A42F48042028204E0028A4BF66F
:10868000FF731A4002827047C1F30802828070476C
:1086900001468888C0F308007047818941F00101D4
:1086A00081817047028BD2B20283028B42EA01229F
:1086B00002837047028B02F47F420283028B0A43DB
:1086C0000283704721B1828A42F02002828204E054
:1086D000828A4FF6DF731A408282704721B1828A04
:1086E00042F01002828204E0828A4FF6EF731A4051
:1086F0008282704721B1828A42F00802828204E0BD
:10870000828A4FF6F7731A408282704721B18289BC
:1087100042F40042828103E08289C2F30E02828128
:10872000704721B1828A42F40062828204E0828A28
:108730004FF2FF731A4082827047828A4FF6FB73B2
:108740001A408282828A0A438282704721B1828AD9
:1087500042F00202828204E0828A4FF6FD731A40E0
:108760008282704702460020B1F5007F00D100BF31
:1087700013880B4201D0012000E00020704701F473
:108780000072B2F5007F00D100BFCA43028070477B
:1087900070B502460024002300250020A1F51066D4
:1087A0006A3E00D100BFC1F3421501F01F0301264C
:1087B00006FA03F3012D02D19689334006E0022D1B
:1087C00002D1168A334001E0968A33400C1201260A
:1087D00006FA04F41688344013B10CB1012000E00D
:1087E000002070BD10B500220023A1F510646A3C82
:1087F00000D100BF0A1201249440A3B2DC430480DC
:1088000010BD000000380140004400400048004016
:10881000004C0040005000400CB50020019000903A
:108820006B48006840F480306949086000BF6848C0
:10883000006800F4003000900198401C01900098FE
:1088400018B90198B0F5A06FF1D16148006810F433
:10885000003F02D00120009001E00020009000982D
:10886000012842D15B48006840F010005949086077
:108870000846006820F0030008600846006840F0E1
:108880000200086052484068514948600846406804
:1088900048600846406840F4806048600846406888
:1088A00020F47C1048600846406840F4E8104860B6
:1088B0000846006840F08070086000BF44480068C7
:1088C00010F0007FFAD04248406820F00300404991
:1088D00048600846406840F00200486000BF3C48DD
:1088E000406800F00C000828F9D10CBD10B5FFF766
:1088F00093FF10BD10B53648006840F001003449C0
:1089000008600846406834490840314948600846D4
:108910000068324908402E4908600846006820F483
:10892000802008600846406820F4FE0048604FF44C
:108930001F008860FFF7DAFF29482A49086010BD48
:1089400010B5002100200022214B5B6803F00C01D0
:1089500021B1042906D0082928D107E0224B234C55
:10896000236027E0204B214C236023E0184B5B68F9
:1089700003F47010164B5B6803F48032022303EBA0
:10898000904022B91A4B4343184C23600DE0104B22
:108990005B6813F4003F04D0154B4343134C236032
:1089A00003E0114B4343114C236003E00E4B0F4C8B
:1089B000236000BF00BF064B5B68C3F303130D4C7D
:1089C000E15C0A4B1B68CB40084C236010BD0000E3
:1089D00000100240002002400000FFF8FFFFF6FEFA
:1089E0000060000808ED00E000127A002C00002072
:1089F00000093D003000002000BFFEE710B500F088
:108A0000E1F810BD00BF3149098811F0800FFAD09C
:108A1000C0F308012D4A121D118070472CA00AE0F6
:108A200000BF2A49098811F0800FFAD010F8011B05
:108A3000264A121D118001780029F1D170472CA01F
:108A40000AE000BF3249098811F0800FFAD010F80F
:108A5000011B2F4A121D118001780029F1D17047A6
:108A60002CA00AE000BF3349098811F0800FFAD02A
:108A700010F8011B2F4A121D118001780029F1D135
:108A800070472DA00AE000BF3349098811F0800F1C
:108A9000FAD010F8011B304A121D1180017800290C
:108AA000F1D1704700BF0948008810F0200FFAD0BC
:108AB0000648001D0088C0B270470448008810F0C6
:108AC000200F01D0012070470020FCE70038014052
:108AD000555341525431206973207072696E746924
:108AE0006E672048656C6C6F20576F726C64210054
:108AF000555341525432206973207072696E746903
:108B00006E672048656C6C6F20576F726C64210033
:108B10000044004055534152543320697320707211
:108B2000696E74696E672048656C6C6F20576F7250
:108B30006C64210000480040554152543420697350
:108B4000207072696E74696E672048656C6C6F2066
:108B5000576F726C64210000004C004008B525205E
:108B60008DF8000001208DF8010000208DF8020032
:108B700001208DF803006846FDF75DFF08BD08B5CC
:108B800001210520FEF72CFC01218803FEF728FCBB
:108B90004FF40070ADF8000003208DF8020018209B
:108BA0008DF8030069464148FEF7FEF84FF48060F7
:108BB000ADF8000004208DF8030069463B48FEF73D
:108BC000F3F808BD1FB5FFF7C9FFFFF7D8FF4FF453
:108BD000612000900020ADF80400ADF80600ADF86B
:108BE0000800ADF80C000C20ADF80A0069463048CA
:108BF000FFF751FC012240F225512D48FFF7E3FC1D
:108C000001212B48FFF7D3FC1FBD10B540F22551C1
:108C10002748FFF7BDFD20B32548FFF739FDC4B253
:108C200040F225512248FFF7DDFD21462048FFF79D
:108C30002BFD00BF80211E48FFF794FD0028F9D0CE
:108C4000162C0ED100BF1B48006800F4E0601A49E2
:108C50000843001D17490860BFF3408F00BF00BFE5
:108C6000FEE710BD00BF1248008810F0200FFAD0B8
:108C70000F48001D0088C0B2704700BF0C4909882A
:108C800011F0800FFAD0C0F30801094A121D1180BB
:108C9000704730B503460C46002504E013F8010B7D
:108CA000FFF7EBFF6D1CA542F8DB30BD000801406B
:108CB000003801400CED00E00000FA0502F0FF036F
:108CC00043EA032242EA024200F005B870477047C7
:108CD00070474FF000020429C0F0128010F0030C1E
:108CE00000F01B80CCF1040CBCF1020F18BF00F89F
:108CF000012BA8BF20F8022BA1EB0C0100F00DB84E
:108D00005FEAC17C24BF00F8012B00F8012B48BFAB
:108D100000F8012B70474FF0000200B5134694464F
:108D20009646203922BFA0E80C50A0E80C50B1F1C3
:108D30002001BFF4F7AF090728BFA0E80C5048BFD7
:108D40000CC05DF804EB890028BF40F8042B08BF75
:108D5000704748BF20F8022B11F0804F18BF00F871
:108D6000012B7047754600F029F8AE4605006946AC
:108D7000534620F00700854618B020B5FDF734FAB9
:108D8000BDE820404FF000064FF000074FF000080C
:108D90004FF0000B21F00701AC46ACE8C009ACE88D
:108DA000C009ACE8C009ACE8C0098D46704704466C
:108DB000AFF300802046FDF702FA0000004870473C
:108DC0006400002001491820ABBEFEE72600020027
:108DD00070470246002000BF002172B600BF7047F6
:108DE00070B500240025FDF71DFE204670BD000073
:108DF000108E000800000020400000006C61000898
:108E0000508E00084000002088060000886100089D
:108E10000000000000000000000000000000000052
:108E20000000000000000000000102030401020332
:108E300004060708090204060800000000A24A040C
:108E400000000000000000000102030406070809FA
:04000005080061315D
:00000001FF
